{
  "_format": "hh-sol-artifact-1",
  "contractName": "TemporaryClearingHouse",
  "sourceName": "contracts/TemporaryClearingHouse.sol",
  "abi": [
    {
      "inputs": [
        {
          "internalType": "contract IERC20",
          "name": "_usdcToken",
          "type": "address"
        }
      ],
      "stateMutability": "nonpayable",
      "type": "constructor"
    },
    {
      "inputs": [],
      "name": "AccessControlBadConfirmation",
      "type": "error"
    },
    {
      "inputs": [
        {
          "internalType": "address",
          "name": "account",
          "type": "address"
        },
        {
          "internalType": "bytes32",
          "name": "neededRole",
          "type": "bytes32"
        }
      ],
      "name": "AccessControlUnauthorizedAccount",
      "type": "error"
    },
    {
      "inputs": [],
      "name": "ReentrancyGuardReentrantCall",
      "type": "error"
    },
    {
      "anonymous": false,
      "inputs": [
        {
          "indexed": true,
          "internalType": "uint256",
          "name": "optionId",
          "type": "uint256"
        },
        {
          "indexed": true,
          "internalType": "address",
          "name": "buyer",
          "type": "address"
        },
        {
          "indexed": true,
          "internalType": "address",
          "name": "seller",
          "type": "address"
        }
      ],
      "name": "CallOptionMinted",
      "type": "event"
    },
    {
      "anonymous": false,
      "inputs": [
        {
          "indexed": true,
          "internalType": "address",
          "name": "user",
          "type": "address"
        },
        {
          "indexed": false,
          "internalType": "uint256",
          "name": "amount",
          "type": "uint256"
        }
      ],
      "name": "Deposited",
      "type": "event"
    },
    {
      "anonymous": false,
      "inputs": [
        {
          "indexed": true,
          "internalType": "uint256",
          "name": "orderId",
          "type": "uint256"
        },
        {
          "indexed": true,
          "internalType": "address",
          "name": "buyer",
          "type": "address"
        }
      ],
      "name": "OrderFilled",
      "type": "event"
    },
    {
      "anonymous": false,
      "inputs": [
        {
          "indexed": true,
          "internalType": "uint256",
          "name": "orderId",
          "type": "uint256"
        },
        {
          "indexed": false,
          "internalType": "bool",
          "name": "isCall",
          "type": "bool"
        },
        {
          "indexed": true,
          "internalType": "uint256",
          "name": "optionId",
          "type": "uint256"
        },
        {
          "indexed": true,
          "internalType": "address",
          "name": "owner",
          "type": "address"
        },
        {
          "indexed": false,
          "internalType": "uint256",
          "name": "price",
          "type": "uint256"
        }
      ],
      "name": "OrderListed",
      "type": "event"
    },
    {
      "anonymous": false,
      "inputs": [
        {
          "indexed": true,
          "internalType": "uint256",
          "name": "optionId",
          "type": "uint256"
        },
        {
          "indexed": true,
          "internalType": "address",
          "name": "buyer",
          "type": "address"
        },
        {
          "indexed": true,
          "internalType": "address",
          "name": "seller",
          "type": "address"
        }
      ],
      "name": "PutOptionMinted",
      "type": "event"
    },
    {
      "anonymous": false,
      "inputs": [
        {
          "indexed": true,
          "internalType": "bytes32",
          "name": "role",
          "type": "bytes32"
        },
        {
          "indexed": true,
          "internalType": "bytes32",
          "name": "previousAdminRole",
          "type": "bytes32"
        },
        {
          "indexed": true,
          "internalType": "bytes32",
          "name": "newAdminRole",
          "type": "bytes32"
        }
      ],
      "name": "RoleAdminChanged",
      "type": "event"
    },
    {
      "anonymous": false,
      "inputs": [
        {
          "indexed": true,
          "internalType": "bytes32",
          "name": "role",
          "type": "bytes32"
        },
        {
          "indexed": true,
          "internalType": "address",
          "name": "account",
          "type": "address"
        },
        {
          "indexed": true,
          "internalType": "address",
          "name": "sender",
          "type": "address"
        }
      ],
      "name": "RoleGranted",
      "type": "event"
    },
    {
      "anonymous": false,
      "inputs": [
        {
          "indexed": true,
          "internalType": "bytes32",
          "name": "role",
          "type": "bytes32"
        },
        {
          "indexed": true,
          "internalType": "address",
          "name": "account",
          "type": "address"
        },
        {
          "indexed": true,
          "internalType": "address",
          "name": "sender",
          "type": "address"
        }
      ],
      "name": "RoleRevoked",
      "type": "event"
    },
    {
      "anonymous": false,
      "inputs": [],
      "name": "SystemAborted",
      "type": "event"
    },
    {
      "anonymous": false,
      "inputs": [],
      "name": "SystemContinued",
      "type": "event"
    },
    {
      "anonymous": false,
      "inputs": [
        {
          "indexed": true,
          "internalType": "address",
          "name": "user",
          "type": "address"
        },
        {
          "indexed": false,
          "internalType": "uint256",
          "name": "amount",
          "type": "uint256"
        }
      ],
      "name": "Withdrawn",
      "type": "event"
    },
    {
      "inputs": [],
      "name": "ADMIN_ROLE",
      "outputs": [
        {
          "internalType": "bytes32",
          "name": "",
          "type": "bytes32"
        }
      ],
      "stateMutability": "view",
      "type": "function"
    },
    {
      "inputs": [],
      "name": "DEFAULT_ADMIN_ROLE",
      "outputs": [
        {
          "internalType": "bytes32",
          "name": "",
          "type": "bytes32"
        }
      ],
      "stateMutability": "view",
      "type": "function"
    },
    {
      "inputs": [],
      "name": "USDC",
      "outputs": [
        {
          "internalType": "uint256",
          "name": "",
          "type": "uint256"
        }
      ],
      "stateMutability": "view",
      "type": "function"
    },
    {
      "inputs": [],
      "name": "abortSystem",
      "outputs": [],
      "stateMutability": "nonpayable",
      "type": "function"
    },
    {
      "inputs": [
        {
          "internalType": "uint256",
          "name": "orderId",
          "type": "uint256"
        }
      ],
      "name": "buyOption",
      "outputs": [],
      "stateMutability": "nonpayable",
      "type": "function"
    },
    {
      "inputs": [
        {
          "internalType": "uint256",
          "name": "",
          "type": "uint256"
        }
      ],
      "name": "callOptions",
      "outputs": [
        {
          "internalType": "address",
          "name": "buyer",
          "type": "address"
        },
        {
          "internalType": "address",
          "name": "seller",
          "type": "address"
        },
        {
          "internalType": "uint256",
          "name": "strikePriceUSDC",
          "type": "uint256"
        },
        {
          "internalType": "uint256",
          "name": "quantityBtc",
          "type": "uint256"
        },
        {
          "internalType": "uint256",
          "name": "expiry",
          "type": "uint256"
        },
        {
          "internalType": "bool",
          "name": "exercised",
          "type": "bool"
        },
        {
          "internalType": "bool",
          "name": "destroyed",
          "type": "bool"
        }
      ],
      "stateMutability": "view",
      "type": "function"
    },
    {
      "inputs": [],
      "name": "continueSystem",
      "outputs": [],
      "stateMutability": "nonpayable",
      "type": "function"
    },
    {
      "inputs": [
        {
          "internalType": "uint256",
          "name": "premiumUSDC",
          "type": "uint256"
        },
        {
          "internalType": "address",
          "name": "seller",
          "type": "address"
        },
        {
          "internalType": "uint256",
          "name": "strikePriceUSDC",
          "type": "uint256"
        },
        {
          "internalType": "uint256",
          "name": "quantityBtc",
          "type": "uint256"
        },
        {
          "internalType": "uint256",
          "name": "expiry",
          "type": "uint256"
        }
      ],
      "name": "depositAndMintCall",
      "outputs": [],
      "stateMutability": "nonpayable",
      "type": "function"
    },
    {
      "inputs": [
        {
          "internalType": "uint256",
          "name": "premiumUSDC",
          "type": "uint256"
        },
        {
          "internalType": "address",
          "name": "seller",
          "type": "address"
        },
        {
          "internalType": "uint256",
          "name": "strikePriceUSDC",
          "type": "uint256"
        },
        {
          "internalType": "uint256",
          "name": "quantityBtc",
          "type": "uint256"
        },
        {
          "internalType": "uint256",
          "name": "expiry",
          "type": "uint256"
        }
      ],
      "name": "depositAndMintPut",
      "outputs": [],
      "stateMutability": "nonpayable",
      "type": "function"
    },
    {
      "inputs": [
        {
          "internalType": "uint256",
          "name": "usdcAmount",
          "type": "uint256"
        }
      ],
      "name": "depositUsdc",
      "outputs": [],
      "stateMutability": "nonpayable",
      "type": "function"
    },
    {
      "inputs": [
        {
          "internalType": "address",
          "name": "",
          "type": "address"
        }
      ],
      "name": "deposits",
      "outputs": [
        {
          "internalType": "uint256",
          "name": "",
          "type": "uint256"
        }
      ],
      "stateMutability": "view",
      "type": "function"
    },
    {
      "inputs": [
        {
          "internalType": "uint256",
          "name": "optionId",
          "type": "uint256"
        }
      ],
      "name": "destroyCallOption",
      "outputs": [],
      "stateMutability": "nonpayable",
      "type": "function"
    },
    {
      "inputs": [
        {
          "internalType": "uint256",
          "name": "optionId",
          "type": "uint256"
        }
      ],
      "name": "destroyPutOption",
      "outputs": [],
      "stateMutability": "nonpayable",
      "type": "function"
    },
    {
      "inputs": [
        {
          "internalType": "uint256",
          "name": "optionId",
          "type": "uint256"
        }
      ],
      "name": "exerciseCallOption",
      "outputs": [],
      "stateMutability": "nonpayable",
      "type": "function"
    },
    {
      "inputs": [
        {
          "internalType": "uint256",
          "name": "optionId",
          "type": "uint256"
        }
      ],
      "name": "exercisePutOption",
      "outputs": [],
      "stateMutability": "nonpayable",
      "type": "function"
    },
    {
      "inputs": [],
      "name": "getBtcPrice",
      "outputs": [
        {
          "internalType": "uint256",
          "name": "value",
          "type": "uint256"
        },
        {
          "internalType": "int8",
          "name": "decimals",
          "type": "int8"
        },
        {
          "internalType": "uint64",
          "name": "timestamp",
          "type": "uint64"
        }
      ],
      "stateMutability": "view",
      "type": "function"
    },
    {
      "inputs": [],
      "name": "getCallOptionsLength",
      "outputs": [
        {
          "internalType": "uint256",
          "name": "",
          "type": "uint256"
        }
      ],
      "stateMutability": "view",
      "type": "function"
    },
    {
      "inputs": [],
      "name": "getOrderBookLength",
      "outputs": [
        {
          "internalType": "uint256",
          "name": "",
          "type": "uint256"
        }
      ],
      "stateMutability": "view",
      "type": "function"
    },
    {
      "inputs": [],
      "name": "getPutOptionsLength",
      "outputs": [
        {
          "internalType": "uint256",
          "name": "",
          "type": "uint256"
        }
      ],
      "stateMutability": "view",
      "type": "function"
    },
    {
      "inputs": [
        {
          "internalType": "bytes32",
          "name": "role",
          "type": "bytes32"
        }
      ],
      "name": "getRoleAdmin",
      "outputs": [
        {
          "internalType": "bytes32",
          "name": "",
          "type": "bytes32"
        }
      ],
      "stateMutability": "view",
      "type": "function"
    },
    {
      "inputs": [
        {
          "internalType": "bytes32",
          "name": "role",
          "type": "bytes32"
        },
        {
          "internalType": "address",
          "name": "account",
          "type": "address"
        }
      ],
      "name": "grantRole",
      "outputs": [],
      "stateMutability": "nonpayable",
      "type": "function"
    },
    {
      "inputs": [
        {
          "internalType": "bytes32",
          "name": "role",
          "type": "bytes32"
        },
        {
          "internalType": "address",
          "name": "account",
          "type": "address"
        }
      ],
      "name": "hasRole",
      "outputs": [
        {
          "internalType": "bool",
          "name": "",
          "type": "bool"
        }
      ],
      "stateMutability": "view",
      "type": "function"
    },
    {
      "inputs": [
        {
          "internalType": "uint256",
          "name": "optionId",
          "type": "uint256"
        },
        {
          "internalType": "uint256",
          "name": "premiumUSDC",
          "type": "uint256"
        }
      ],
      "name": "listCallOptionForSale",
      "outputs": [],
      "stateMutability": "nonpayable",
      "type": "function"
    },
    {
      "inputs": [
        {
          "internalType": "uint256",
          "name": "optionId",
          "type": "uint256"
        },
        {
          "internalType": "uint256",
          "name": "premiumUSDC",
          "type": "uint256"
        }
      ],
      "name": "listPutOptionForSale",
      "outputs": [],
      "stateMutability": "nonpayable",
      "type": "function"
    },
    {
      "inputs": [
        {
          "internalType": "uint256",
          "name": "premiumUSDC",
          "type": "uint256"
        },
        {
          "internalType": "address",
          "name": "seller",
          "type": "address"
        },
        {
          "internalType": "uint256",
          "name": "strikePriceUSDC",
          "type": "uint256"
        },
        {
          "internalType": "uint256",
          "name": "quantityBtc",
          "type": "uint256"
        },
        {
          "internalType": "uint256",
          "name": "expiry",
          "type": "uint256"
        }
      ],
      "name": "mintCallOption",
      "outputs": [],
      "stateMutability": "nonpayable",
      "type": "function"
    },
    {
      "inputs": [
        {
          "internalType": "uint256",
          "name": "premiumUSDC",
          "type": "uint256"
        },
        {
          "internalType": "address",
          "name": "seller",
          "type": "address"
        },
        {
          "internalType": "uint256",
          "name": "strikePriceUSDC",
          "type": "uint256"
        },
        {
          "internalType": "uint256",
          "name": "quantityBtc",
          "type": "uint256"
        },
        {
          "internalType": "uint256",
          "name": "expiry",
          "type": "uint256"
        }
      ],
      "name": "mintPutOption",
      "outputs": [],
      "stateMutability": "nonpayable",
      "type": "function"
    },
    {
      "inputs": [],
      "name": "one_btc",
      "outputs": [
        {
          "internalType": "uint256",
          "name": "",
          "type": "uint256"
        }
      ],
      "stateMutability": "view",
      "type": "function"
    },
    {
      "inputs": [
        {
          "internalType": "uint256",
          "name": "",
          "type": "uint256"
        }
      ],
      "name": "orderBook",
      "outputs": [
        {
          "internalType": "address",
          "name": "owner",
          "type": "address"
        },
        {
          "internalType": "bool",
          "name": "isCall",
          "type": "bool"
        },
        {
          "internalType": "uint256",
          "name": "optionId",
          "type": "uint256"
        },
        {
          "internalType": "uint256",
          "name": "premiumUSDC",
          "type": "uint256"
        },
        {
          "internalType": "bool",
          "name": "active",
          "type": "bool"
        }
      ],
      "stateMutability": "view",
      "type": "function"
    },
    {
      "inputs": [
        {
          "internalType": "uint256",
          "name": "",
          "type": "uint256"
        }
      ],
      "name": "putOptions",
      "outputs": [
        {
          "internalType": "address",
          "name": "buyer",
          "type": "address"
        },
        {
          "internalType": "address",
          "name": "seller",
          "type": "address"
        },
        {
          "internalType": "uint256",
          "name": "strikePriceUSDC",
          "type": "uint256"
        },
        {
          "internalType": "uint256",
          "name": "quantityBtc",
          "type": "uint256"
        },
        {
          "internalType": "uint256",
          "name": "expiry",
          "type": "uint256"
        },
        {
          "internalType": "bool",
          "name": "exercised",
          "type": "bool"
        },
        {
          "internalType": "bool",
          "name": "destroyed",
          "type": "bool"
        }
      ],
      "stateMutability": "view",
      "type": "function"
    },
    {
      "inputs": [
        {
          "internalType": "bytes32",
          "name": "role",
          "type": "bytes32"
        },
        {
          "internalType": "address",
          "name": "callerConfirmation",
          "type": "address"
        }
      ],
      "name": "renounceRole",
      "outputs": [],
      "stateMutability": "nonpayable",
      "type": "function"
    },
    {
      "inputs": [
        {
          "internalType": "bytes32",
          "name": "role",
          "type": "bytes32"
        },
        {
          "internalType": "address",
          "name": "account",
          "type": "address"
        }
      ],
      "name": "revokeRole",
      "outputs": [],
      "stateMutability": "nonpayable",
      "type": "function"
    },
    {
      "inputs": [
        {
          "internalType": "uint256",
          "name": "price",
          "type": "uint256"
        },
        {
          "internalType": "int8",
          "name": "decimals",
          "type": "int8"
        }
      ],
      "name": "setTestBtcPrice",
      "outputs": [],
      "stateMutability": "nonpayable",
      "type": "function"
    },
    {
      "inputs": [],
      "name": "status",
      "outputs": [
        {
          "internalType": "enum ITemporaryClearingHouse.Status",
          "name": "",
          "type": "uint8"
        }
      ],
      "stateMutability": "view",
      "type": "function"
    },
    {
      "inputs": [
        {
          "internalType": "bytes4",
          "name": "interfaceId",
          "type": "bytes4"
        }
      ],
      "name": "supportsInterface",
      "outputs": [
        {
          "internalType": "bool",
          "name": "",
          "type": "bool"
        }
      ],
      "stateMutability": "view",
      "type": "function"
    },
    {
      "inputs": [],
      "name": "testBtcDecimals",
      "outputs": [
        {
          "internalType": "int8",
          "name": "",
          "type": "int8"
        }
      ],
      "stateMutability": "view",
      "type": "function"
    },
    {
      "inputs": [],
      "name": "testBtcPrice",
      "outputs": [
        {
          "internalType": "uint256",
          "name": "",
          "type": "uint256"
        }
      ],
      "stateMutability": "view",
      "type": "function"
    },
    {
      "inputs": [],
      "name": "usdcToken",
      "outputs": [
        {
          "internalType": "contract IERC20",
          "name": "",
          "type": "address"
        }
      ],
      "stateMutability": "view",
      "type": "function"
    },
    {
      "inputs": [
        {
          "internalType": "address",
          "name": "",
          "type": "address"
        }
      ],
      "name": "virtualBalances",
      "outputs": [
        {
          "internalType": "uint256",
          "name": "",
          "type": "uint256"
        }
      ],
      "stateMutability": "view",
      "type": "function"
    },
    {
      "inputs": [],
      "name": "withdraw",
      "outputs": [],
      "stateMutability": "nonpayable",
      "type": "function"
    }
  ],
  "bytecode": "0x608060405234801561001057600080fd5b50604051612f86380380612f8683398101604081905261002f9161012f565b6001805561005d7fa49807205ce4d355092ef5a8a18f56e8913cf4a201fbe287825b095693c2177533610083565b50600280546001600160a01b0319166001600160a01b039290921691909117905561015f565b6000828152602081815260408083206001600160a01b038516845290915281205460ff16610125576000838152602081815260408083206001600160a01b03861684529091529020805460ff191660011790556100dd3390565b6001600160a01b0316826001600160a01b0316847f2f8788117e7eff1d82e926ec794901d17c78024a50270940304540a733656f0d60405160405180910390a4506001610129565b5060005b92915050565b60006020828403121561014157600080fd5b81516001600160a01b038116811461015857600080fd5b9392505050565b612e188061016e6000396000f3fe608060405234801561001057600080fd5b506004361061023c5760003560e01c80638151760f1161013b578063a88e76f4116100b8578063d547741f1161007c578063d547741f14610585578063e1edf9a714610598578063fba225b9146105ab578063fc7e286d146105be578063fd7192fc146105de57600080fd5b8063a88e76f414610531578063ba4243c114610544578063caf3f98014610557578063cb1b09171461056a578063cbbbcf941461057d57600080fd5b806391d14854116100ff57806391d1485414610458578063a20b6e341461046b578063a20c6a4e146104b2578063a217fddf14610509578063a629a83a1461051157600080fd5b80638151760f1461040257806384148d061461040a57806387110cab1461041d57806389a30271146104255780638bf30ec91461042f57600080fd5b80632f2ff15d116101c95780633a3610bc1161018d5780633a3610bc146103885780633ccfd60b146103b85780633db5f769146103c057806375b238fc146103c85780637ed83faf146103ef57600080fd5b80632f2ff15d1461032757806336568abe1461033a57806336679e6d1461034d57806336cccdad1461036d578063372d839d1461038057600080fd5b806303f1e20a1161021057806303f1e20a146102a357806311eac855146102ac578063200d2ed2146102d75780632357928e146102f1578063248a9ca31461030457600080fd5b80629bd44c1461024157806301ffc9a714610256578063032a56711461027e57806303620a3f14610290575b600080fd5b61025461024f366004612900565b6105f1565b005b610269610264366004612919565b6107ee565b60405190151581526020015b60405180910390f35b6006545b604051908152602001610275565b61025461029e36600461295f565b610825565b61028260095481565b6002546102bf906001600160a01b031681565b6040516001600160a01b039091168152602001610275565b6008546102e49060ff1681565b60405161027591906129bd565b6102546102ff366004612900565b610878565b610282610312366004612900565b60009081526020819052604090206001015490565b6102546103353660046129e5565b6109aa565b6102546103483660046129e5565b6109d5565b61028261035b366004612a15565b60046020526000908152604090205481565b61025461037b366004612a32565b610a0d565b610282610c55565b610390610c76565b6040805193845260009290920b602084015267ffffffffffffffff1690820152606001610275565b610254610d29565b610254610fbb565b6102827fa49807205ce4d355092ef5a8a18f56e8913cf4a201fbe287825b095693c2177581565b6102546103fd366004612a32565b611054565b600554610282565b610254610418366004612900565b611293565b600754610282565b610282620f424081565b61025461043d366004612a63565b600991909155600a805460ff191660ff909216919091179055565b6102696104663660046129e5565b6112ff565b61047e610479366004612900565b611328565b604080516001600160a01b03909616865293151560208601529284019190915260608301521515608082015260a001610275565b6104c56104c0366004612900565b611379565b604080516001600160a01b0398891681529790961660208801529486019390935260608501919091526080840152151560a0830152151560c082015260e001610275565b610282600081565b600a5461051e9060000b81565b60405160009190910b8152602001610275565b61025461053f366004612900565b6113d8565b61025461055236600461295f565b611667565b61025461056536600461295f565b611a49565b6104c5610578366004612900565b611e01565b610254611e11565b6102546105933660046129e5565b611ff5565b6102546105a636600461295f565b61201a565b6102546105b9366004612900565b612066565b6102826105cc366004612a15565b60036020526000908152604090205481565b6102546105ec366004612900565b6122d4565b600160085460ff16600281111561060a5761060a6129a7565b036106305760405162461bcd60e51b815260040161062790612a88565b60405180910390fd5b60055481106106515760405162461bcd60e51b815260040161062790612ab0565b60006005828154811061066657610666612adb565b60009182526020909120600690910201600581015490915060ff161561069e5760405162461bcd60e51b815260040161062790612af1565b60018101546001600160a01b031633146106ec5760405162461bcd60e51b815260206004820152600f60248201526e2737ba103ab73232b93bb934ba32b960891b6044820152606401610627565b806004015442116107345760405162461bcd60e51b815260206004820152601260248201527113dc1d1a5bdb881b9bdd08195e1c1a5c995960721b6044820152606401610627565b6005810154610100900460ff16156107825760405162461bcd60e51b8152602060048201526011602482015270105b1c9958591e4819195cdd1c9bde5959607a1b6044820152606401610627565b60058101805461ff00191661010017905561079b610c55565b816002015482600301546107af9190612b32565b6107b99190612b49565b60018201546001600160a01b0316600090815260046020526040812080549091906107e5908490612b6b565b90915550505050565b60006001600160e01b03198216637965db0b60e01b148061081f57506301ffc9a760e01b6001600160e01b03198316145b92915050565b600060085460ff16600281111561083e5761083e6129a7565b1461085b5760405162461bcd60e51b815260040161062790612b7e565b61086485610878565b6108718585858585611a49565b5050505050565b600060085460ff166002811115610891576108916129a7565b146108ae5760405162461bcd60e51b815260040161062790612b7e565b6002546040516323b872dd60e01b8152336004820152306024820152604481018390526001600160a01b03909116906323b872dd906064016020604051808303816000875af1158015610905573d6000803e3d6000fd5b505050506040513d601f19601f820116820180604052508101906109299190612bb5565b503360009081526003602052604081208054839290610949908490612b6b565b9091555050336000908152600460205260408120805483929061096d908490612b6b565b909155505060405181815233907f2da466a7b24304f47e87fa2e1e5a81b9831ce54fec19055ce277ca2f39ba42c49060200160405180910390a250565b6000828152602081905260409020600101546109c581612446565b6109cf8383612453565b50505050565b6001600160a01b03811633146109fe5760405163334bd91960e11b815260040160405180910390fd5b610a0882826124e5565b505050565b600160085460ff166002811115610a2657610a266129a7565b03610a435760405162461bcd60e51b815260040161062790612a88565b6006548210610a645760405162461bcd60e51b815260040161062790612ab0565b600060068381548110610a7957610a79612adb565b6000918252602090912060069091020180549091506001600160a01b03163314610ab55760405162461bcd60e51b815260040161062790612bd7565b600581015460ff1615610ada5760405162461bcd60e51b815260040161062790612af1565b8060040154421115610afe5760405162461bcd60e51b815260040161062790612c00565b600780546040805160a08101825233808252600060208084018281528486018b8152606086018b8152600160808801818152908a018b559985529551600489027fa66cc928b5edb82af9bd49922954155ab7b0942694bea4ce44661d9a8736c6888101805494511515600160a01b026001600160a81b03199095166001600160a01b0390931692909217939093179055517fa66cc928b5edb82af9bd49922954155ab7b0942694bea4ce44661d9a8736c68982015593517fa66cc928b5edb82af9bd49922954155ab7b0942694bea4ce44661d9a8736c68a85015595517fa66cc928b5edb82af9bd49922954155ab7b0942694bea4ce44661d9a8736c68b909301805493151560ff19909416939093179092558251918252938101869052919291869184917ff4b3231bef2c91eceedff9d3bc0e7223f87c4b6518e8b572e3d707e0ddd709ac91015b60405180910390a450505050565b600080610c60610c76565b509150610c70905081600a612d0f565b91505090565b6000806000806009541115610c9b575050600954600a54909260009190910b91504290565b6000610ca5612550565b6040516349f4fc0360e11b815266509510cbd554d160c21b600482018190529192506001600160a01b038316906393e9f80690602401606060405180830381865afa158015610cf8573d6000803e3d6000fd5b505050506040513d601f19601f82011682018060405250810190610d1c9190612d1e565b9450945094505050909192565b610d31612619565b600060085460ff166002811115610d4a57610d4a6129a7565b03610d675760405162461bcd60e51b815260040161062790612d6e565b600160085460ff166002811115610d8057610d806129a7565b03610e9c573360009081526003602052604090205480610dd85760405162461bcd60e51b81526020600482015260136024820152724e6f7468696e6720746f20776974686472617760681b6044820152606401610627565b3360008181526003602052604080822091909155600254905163a9059cbb60e01b81526004810192909252602482018390526001600160a01b03169063a9059cbb906044016020604051808303816000875af1158015610e3c573d6000803e3d6000fd5b505050506040513d601f19601f82011682018060405250810190610e609190612bb5565b5060405181815233907f7084f5476618d8e60b11ef0d7d3f06914655adb8793e28ff7f018d4c76d505d59060200160405180910390a250610fb0565b3360009081526004602052604090205480610eef5760405162461bcd60e51b81526020600482015260136024820152724e6f7468696e6720746f20776974686472617760681b6044820152606401610627565b33600081815260046020819052604080832092909255600254915163a9059cbb60e01b815290810192909252602482018390526001600160a01b03169063a9059cbb906044016020604051808303816000875af1158015610f54573d6000803e3d6000fd5b505050506040513d601f19601f82011682018060405250810190610f789190612bb5565b5060405181815233907f7084f5476618d8e60b11ef0d7d3f06914655adb8793e28ff7f018d4c76d505d59060200160405180910390a2505b610fb960018055565b565b600060085460ff166002811115610fd457610fd46129a7565b14610ff15760405162461bcd60e51b815260040161062790612b7e565b7fa49807205ce4d355092ef5a8a18f56e8913cf4a201fbe287825b095693c2177561101b81612446565b6008805460ff191660021790556040517fc8c9a0553d39adb3c6a05a221391c8bed0303510816a373eef652849f7bfd72990600090a150565b600160085460ff16600281111561106d5761106d6129a7565b0361108a5760405162461bcd60e51b815260040161062790612a88565b60055482106110ab5760405162461bcd60e51b815260040161062790612ab0565b6000600583815481106110c0576110c0612adb565b6000918252602090912060069091020180549091506001600160a01b031633146110fc5760405162461bcd60e51b815260040161062790612bd7565b600581015460ff16156111215760405162461bcd60e51b815260040161062790612af1565b80600401544211156111455760405162461bcd60e51b815260040161062790612c00565b600780546040805160a08101825233808252600160208084018281528486018b8152606086018b815260808701858152858a018b5560009a909a529551600489027fa66cc928b5edb82af9bd49922954155ab7b0942694bea4ce44661d9a8736c6888101805494511515600160a01b026001600160a81b03199095166001600160a01b0390931692909217939093179055517fa66cc928b5edb82af9bd49922954155ab7b0942694bea4ce44661d9a8736c68982015593517fa66cc928b5edb82af9bd49922954155ab7b0942694bea4ce44661d9a8736c68a85015595517fa66cc928b5edb82af9bd49922954155ab7b0942694bea4ce44661d9a8736c68b909301805493151560ff19909416939093179092558251918252938101869052919291869184917ff4b3231bef2c91eceedff9d3bc0e7223f87c4b6518e8b572e3d707e0ddd709ac9101610c47565b600160085460ff1660028111156112ac576112ac6129a7565b036112c95760405162461bcd60e51b815260040161062790612a88565b60065481106112ea5760405162461bcd60e51b815260040161062790612ab0565b60006006828154811061066657610666612adb565b6000918252602082815260408084206001600160a01b0393909316845291905290205460ff1690565b6007818154811061133857600080fd5b600091825260209091206004909102018054600182015460028301546003909301546001600160a01b038316945060ff600160a01b90930483169391921685565b6006818154811061138957600080fd5b60009182526020909120600690910201805460018201546002830154600384015460048501546005909501546001600160a01b0394851696509390921693909260ff8082169161010090041687565b600160085460ff1660028111156113f1576113f16129a7565b0361140e5760405162461bcd60e51b815260040161062790612a88565b600554811061142f5760405162461bcd60e51b815260040161062790612ab0565b60006005828154811061144457611444612adb565b6000918252602090912060069091020180549091506001600160a01b031633146114805760405162461bcd60e51b815260040161062790612bd7565b600581015460ff16156114a55760405162461bcd60e51b815260040161062790612af1565b80600401544211156114c95760405162461bcd60e51b815260040161062790612c00565b6000806114d4610c76565b509150915060008160000b12156115205760405162461bcd60e51b815260206004820152601060248201526f496e76616c696420646563696d616c7360801b6044820152606401610627565b6002830154828181111561162357600061153b84600a612d0f565b600387015461154a8585612db2565b6115549190612b32565b61155e9190612b49565b60018701546001600160a01b03166000908152600460205260409020549091508111156115c25760405162461bcd60e51b815260206004820152601260248201527153656c6c6572206c61636b732066756e647360701b6044820152606401610627565b60018601546001600160a01b0316600090815260046020526040812080548392906115ee908490612db2565b909155505085546001600160a01b03166000908152600460205260408120805483929061161c908490612b6b565b9091555050505b60058501805460ff19166001179055604051339087907f74ebbab24ee8774729982ac100f931306b160f431f7f1483cc380186d56754bc90600090a3505050505050565b600060085460ff166002811115611680576116806129a7565b1461169d5760405162461bcd60e51b815260040161062790612b7e565b336001600160a01b0385166116e55760405162461bcd60e51b815260206004820152600e60248201526d24b73b30b634b21039b2b63632b960911b6044820152606401610627565b4282116117255760405162461bcd60e51b815260206004820152600e60248201526d496e76616c69642065787069727960901b6044820152606401610627565b6001600160a01b03811660009081526004602052604090205486111561178d5760405162461bcd60e51b815260206004820181905260248201527f4275796572206c61636b732066756e647320746f20706179207072656d69756d6044820152606401610627565b6001600160a01b038116600090815260046020526040812080548892906117b5908490612db2565b90915550506001600160a01b038516600090815260046020526040812080548892906117e2908490612b6b565b90915550600090506117f2610c55565b6117fc8686612b32565b6118069190612b49565b6001600160a01b03871660009081526004602052604090205490915081111561186b5760405162461bcd60e51b815260206004820152601760248201527614d95b1b195c881b1858dadcc818dbdb1b185d195c985b604a1b6044820152606401610627565b6001600160a01b03861660009081526004602052604081208054839290611893908490612db2565b9091555050600580546040805160e081018252338082526001600160a01b038b8116602084018181528486018d8152606086018d8152608087018d8152600060a0890181815260c08a0182815260018d018e559c8252985160068c027f036b6384b5eca791c62761152d0c79bb0604c104a5fb6f4eb0703f3154bb3db081018054928a166001600160a01b031993841617905595517f036b6384b5eca791c62761152d0c79bb0604c104a5fb6f4eb0703f3154bb3db1870180549190991691161790965591517f036b6384b5eca791c62761152d0c79bb0604c104a5fb6f4eb0703f3154bb3db2840155517f036b6384b5eca791c62761152d0c79bb0604c104a5fb6f4eb0703f3154bb3db3830155517f036b6384b5eca791c62761152d0c79bb0604c104a5fb6f4eb0703f3154bb3db482015593517f036b6384b5eca791c62761152d0c79bb0604c104a5fb6f4eb0703f3154bb3db59094018054975115156101000261ff00199515159590951661ffff19909816979097179390931790955591519293909284917fadd7a9f0ecc251098cacc1d016be5cb2a6d025381843cd5e5e03ff2e0274396b91a45050505050505050565b600160085460ff166002811115611a6257611a626129a7565b03611a7f5760405162461bcd60e51b815260040161062790612a88565b336001600160a01b038516611ac75760405162461bcd60e51b815260206004820152600e60248201526d24b73b30b634b21039b2b63632b960911b6044820152606401610627565b428211611b075760405162461bcd60e51b815260206004820152600e60248201526d496e76616c69642065787069727960901b6044820152606401610627565b6001600160a01b038116600090815260046020526040902054861115611b6f5760405162461bcd60e51b815260206004820181905260248201527f4275796572206c61636b732066756e647320746f20706179207072656d69756d6044820152606401610627565b6001600160a01b03811660009081526004602052604081208054889290611b97908490612db2565b90915550506001600160a01b03851660009081526004602052604081208054889290611bc4908490612b6b565b9091555060009050611bd4610c55565b611bde8686612b32565b611be89190612b49565b6001600160a01b038716600090815260046020526040902054909150811115611c4d5760405162461bcd60e51b815260206004820152601760248201527614d95b1b195c881b1858dadcc818dbdb1b185d195c985b604a1b6044820152606401610627565b6001600160a01b03861660009081526004602052604081208054839290611c75908490612db2565b925050819055506000600680549050905060066040518060e00160405280336001600160a01b03168152602001896001600160a01b0316815260200188815260200187815260200186815260200160001515815260200160001515815250908060018154018082558091505060019003906000526020600020906006020160009091909190915060008201518160000160006101000a8154816001600160a01b0302191690836001600160a01b0316021790555060208201518160010160006101000a8154816001600160a01b0302191690836001600160a01b0316021790555060408201518160020155606082015181600301556080820151816004015560a08201518160050160006101000a81548160ff02191690831515021790555060c08201518160050160016101000a81548160ff0219169083151502179055505050866001600160a01b0316336001600160a01b0316827f276c5c382d854db896b2c3a61657178d5ca2278f683551822bb5c0f7bceeaa8460405160405180910390a45050505050505050565b6005818154811061138957600080fd5b600060085460ff166002811115611e2a57611e2a6129a7565b14611e475760405162461bcd60e51b815260040161062790612b7e565b7fa49807205ce4d355092ef5a8a18f56e8913cf4a201fbe287825b095693c21775611e7181612446565b6008805460ff1916600117905560005b600554811015611ee757600060058281548110611ea057611ea0612adb565b600091825260209091206006909102018054909150611ec7906001600160a01b0316612643565b6001810154611ede906001600160a01b0316612643565b50600101611e81565b5060005b600654811015611f5157600060068281548110611f0a57611f0a612adb565b600091825260209091206006909102018054909150611f31906001600160a01b0316612643565b6001810154611f48906001600160a01b0316612643565b50600101611eeb565b5060005b600754811015611fa457600060078281548110611f7457611f74612adb565b600091825260209091206004909102018054909150611f9b906001600160a01b0316612643565b50600101611f55565b50611fb160056000612833565b611fbd60066000612833565b611fc960076000612854565b6040517fe1cdf1bd1b09ec8720f86614b0df95a0e2d1e0fc5c126f294604b904f29548bc90600090a150565b60008281526020819052604090206001015461201081612446565b6109cf83836124e5565b600060085460ff166002811115612033576120336129a7565b146120505760405162461bcd60e51b815260040161062790612b7e565b61205985610878565b6108718585858585611667565b600160085460ff16600281111561207f5761207f6129a7565b0361209c5760405162461bcd60e51b815260040161062790612a88565b60075481106120e05760405162461bcd60e51b815260206004820152601060248201526f125b9d985b1a59081bdc99195c88125160821b6044820152606401610627565b6000600782815481106120f5576120f5612adb565b60009182526020909120600490910201600381015490915060ff1661214d5760405162461bcd60e51b815260206004820152600e60248201526d24b730b1ba34bb329037b93232b960911b6044820152606401610627565b60028101543360009081526004602052604090205410156121b05760405162461bcd60e51b815260206004820152601c60248201527f496e73756666696369656e74207669727475616c2062616c616e6365000000006044820152606401610627565b600281015433600090815260046020526040812080549091906121d4908490612db2565b9091555050600281015481546001600160a01b031660009081526004602052604081208054909190612207908490612b6b565b90915550508054600160a01b900460ff161561225c576000600582600101548154811061223657612236612adb565b6000918252602090912060069091020180546001600160a01b0319163317905550612297565b6000600682600101548154811061227557612275612adb565b6000918252602090912060069091020180546001600160a01b03191633179055505b60038101805460ff19169055604051339083907f74ebbab24ee8774729982ac100f931306b160f431f7f1483cc380186d56754bc90600090a35050565b600160085460ff1660028111156122ed576122ed6129a7565b0361230a5760405162461bcd60e51b815260040161062790612a88565b600654811061232b5760405162461bcd60e51b815260040161062790612ab0565b60006006828154811061234057612340612adb565b6000918252602090912060069091020180549091506001600160a01b0316331461237c5760405162461bcd60e51b815260040161062790612bd7565b600581015460ff16156123a15760405162461bcd60e51b815260040161062790612af1565b80600401544211156123c55760405162461bcd60e51b815260040161062790612c00565b6000806123d0610c76565b509150915060008160000b121561241c5760405162461bcd60e51b815260206004820152601060248201526f496e76616c696420646563696d616c7360801b6044820152606401610627565b6002830154828082111561162357600061243784600a612d0f565b600387015461154a8486612db2565b61245081336127fa565b50565b600061245f83836112ff565b6124dd576000838152602081815260408083206001600160a01b03861684529091529020805460ff191660011790556124953390565b6001600160a01b0316826001600160a01b0316847f2f8788117e7eff1d82e926ec794901d17c78024a50270940304540a733656f0d60405160405180910390a450600161081f565b50600061081f565b60006124f183836112ff565b156124dd576000838152602081815260408083206001600160a01b0386168085529252808320805460ff1916905551339286917ff6391f5c32d9c69d2a47ea670b442974b53935d1edc7fd64eb21e047a839171b9190a450600161081f565b600073ad67fe66660fb8dfe9d6b1b4240d8650e30f60196001600160a01b031663159354a260405160200161259f90602080825260069082015265233a39b7ab1960d11b604082015260600190565b604051602081830303815290604052805190602001206040518263ffffffff1660e01b81526004016125d391815260200190565b602060405180830381865afa1580156125f0573d6000803e3d6000fd5b505050506040513d601f19601f820116820180604052508101906126149190612dc5565b905090565b60026001540361263c57604051633ee5aeb560e01b815260040160405180910390fd5b6002600155565b600060085460ff16600281111561265c5761265c6129a7565b036126795760405162461bcd60e51b815260040161062790612d6e565b600160085460ff166002811115612692576126926129a7565b0361278c576001600160a01b0381166000908152600360205260409020548015612788576001600160a01b0382811660008181526003602052604080822091909155600254905163a9059cbb60e01b81526004810192909252602482018490529091169063a9059cbb906044015b6020604051808303816000875af115801561271f573d6000803e3d6000fd5b505050506040513d601f19601f820116820180604052508101906127439190612bb5565b50816001600160a01b03167f7084f5476618d8e60b11ef0d7d3f06914655adb8793e28ff7f018d4c76d505d58260405161277f91815260200190565b60405180910390a25b5050565b6001600160a01b0381166000908152600460205260409020548015612788576001600160a01b03828116600081815260046020819052604080832092909255600254915163a9059cbb60e01b815290810192909252602482018490529091169063a9059cbb90604401612700565b61280482826112ff565b6127885760405163e2517d3f60e01b81526001600160a01b038216600482015260248101839052604401610627565b50805460008255600602906000526020600020908101906124509190612875565b508054600082556004029060005260206000209081019061245091906128c7565b5b808211156128c35780546001600160a01b03199081168255600182018054909116905560006002820181905560038201819055600482015560058101805461ffff19169055600601612876565b5090565b5b808211156128c35780546001600160a81b0319168155600060018201819055600282015560038101805460ff191690556004016128c8565b60006020828403121561291257600080fd5b5035919050565b60006020828403121561292b57600080fd5b81356001600160e01b03198116811461294357600080fd5b9392505050565b6001600160a01b038116811461245057600080fd5b600080600080600060a0868803121561297757600080fd5b8535945060208601356129898161294a565b94979496505050506040830135926060810135926080909101359150565b634e487b7160e01b600052602160045260246000fd5b60208101600383106129df57634e487b7160e01b600052602160045260246000fd5b91905290565b600080604083850312156129f857600080fd5b823591506020830135612a0a8161294a565b809150509250929050565b600060208284031215612a2757600080fd5b81356129438161294a565b60008060408385031215612a4557600080fd5b50508035926020909101359150565b8060000b811461245057600080fd5b60008060408385031215612a7657600080fd5b823591506020830135612a0a81612a54565b6020808252600e908201526d14de5cdd195b4818589bdc9d195960921b604082015260600190565b602080825260119082015270125b9d985b1a59081bdc1d1a5bdb881251607a1b604082015260600190565b634e487b7160e01b600052603260045260246000fd5b602080825260119082015270105b1c9958591e48195e195c98da5cd959607a1b604082015260600190565b634e487b7160e01b600052601160045260246000fd5b808202811582820484141761081f5761081f612b1c565b600082612b6657634e487b7160e01b600052601260045260246000fd5b500490565b8082018082111561081f5761081f612b1c565b6020808252601b908201527f53797374656d206e6f7420696e2070656e64696e672073746174650000000000604082015260600190565b600060208284031215612bc757600080fd5b8151801515811461294357600080fd5b6020808252600f908201526e2737ba103cb7bab91037b83a34b7b760891b604082015260600190565b6020808252600e908201526d13dc1d1a5bdb88195e1c1a5c995960921b604082015260600190565b6001815b6001841115612c6357808504811115612c4757612c47612b1c565b6001841615612c5557908102905b60019390931c928002612c2c565b935093915050565b600082612c7a5750600161081f565b81612c875750600061081f565b8160018114612c9d5760028114612ca757612cc3565b600191505061081f565b60ff841115612cb857612cb8612b1c565b50506001821b61081f565b5060208310610133831016604e8410600b8410161715612ce6575081810a61081f565b612cf36000198484612c28565b8060001904821115612d0757612d07612b1c565b029392505050565b600061294360ff841683612c6b565b600080600060608486031215612d3357600080fd5b835192506020840151612d4581612a54565b604085015190925067ffffffffffffffff81168114612d6357600080fd5b809150509250925092565b60208082526024908201527f43616e6e6f7420776974686472617720647572696e672070656e64696e6720736040820152637461746560e01b606082015260800190565b8181038181111561081f5761081f612b1c565b600060208284031215612dd757600080fd5b81516129438161294a56fea264697066735822122081964261037f99a0c09ab92c410c02908ec0c497d6e548fd17fbd96755af802f64736f6c634300081a0033",
  "linkReferences": {},
  "deployedLinkReferences": {}
}