{
  "_format": "hh-sol-artifact-1",
  "contractName": "FlareEnough",
  "sourceName": "contracts/FlareEnough.sol",
  "abi": [
    {
      "inputs": [
        {
          "internalType": "contract IERC20",
          "name": "_usdcToken",
          "type": "address"
        }
      ],
      "stateMutability": "nonpayable",
      "type": "constructor"
    },
    {
      "inputs": [
        {
          "internalType": "address",
          "name": "owner",
          "type": "address"
        }
      ],
      "name": "OwnableInvalidOwner",
      "type": "error"
    },
    {
      "inputs": [
        {
          "internalType": "address",
          "name": "account",
          "type": "address"
        }
      ],
      "name": "OwnableUnauthorizedAccount",
      "type": "error"
    },
    {
      "anonymous": false,
      "inputs": [
        {
          "indexed": false,
          "internalType": "uint256",
          "name": "marketId",
          "type": "uint256"
        }
      ],
      "name": "MarketCreated",
      "type": "event"
    },
    {
      "anonymous": false,
      "inputs": [
        {
          "indexed": true,
          "internalType": "address",
          "name": "previousOwner",
          "type": "address"
        },
        {
          "indexed": true,
          "internalType": "address",
          "name": "newOwner",
          "type": "address"
        }
      ],
      "name": "OwnershipTransferred",
      "type": "event"
    },
    {
      "inputs": [
        {
          "components": [
            {
              "internalType": "uint256",
              "name": "eventId",
              "type": "uint256"
            },
            {
              "internalType": "string",
              "name": "name",
              "type": "string"
            },
            {
              "internalType": "bool",
              "name": "eventHappened",
              "type": "bool"
            }
          ],
          "internalType": "struct DataTransportObject",
          "name": "dto",
          "type": "tuple"
        }
      ],
      "name": "abiSignatureHack",
      "outputs": [],
      "stateMutability": "pure",
      "type": "function"
    },
    {
      "inputs": [
        {
          "components": [
            {
              "internalType": "bytes32[]",
              "name": "merkleProof",
              "type": "bytes32[]"
            },
            {
              "components": [
                {
                  "internalType": "bytes32",
                  "name": "attestationType",
                  "type": "bytes32"
                },
                {
                  "internalType": "bytes32",
                  "name": "sourceId",
                  "type": "bytes32"
                },
                {
                  "internalType": "uint64",
                  "name": "votingRound",
                  "type": "uint64"
                },
                {
                  "internalType": "uint64",
                  "name": "lowestUsedTimestamp",
                  "type": "uint64"
                },
                {
                  "components": [
                    {
                      "internalType": "string",
                      "name": "url",
                      "type": "string"
                    },
                    {
                      "internalType": "string",
                      "name": "httpMethod",
                      "type": "string"
                    },
                    {
                      "internalType": "string",
                      "name": "headers",
                      "type": "string"
                    },
                    {
                      "internalType": "string",
                      "name": "queryParams",
                      "type": "string"
                    },
                    {
                      "internalType": "string",
                      "name": "body",
                      "type": "string"
                    },
                    {
                      "internalType": "string",
                      "name": "postProcessJq",
                      "type": "string"
                    },
                    {
                      "internalType": "string",
                      "name": "abiSignature",
                      "type": "string"
                    }
                  ],
                  "internalType": "struct IWeb2Json.RequestBody",
                  "name": "requestBody",
                  "type": "tuple"
                },
                {
                  "components": [
                    {
                      "internalType": "bytes",
                      "name": "abiEncodedData",
                      "type": "bytes"
                    }
                  ],
                  "internalType": "struct IWeb2Json.ResponseBody",
                  "name": "responseBody",
                  "type": "tuple"
                }
              ],
              "internalType": "struct IWeb2Json.Response",
              "name": "data",
              "type": "tuple"
            }
          ],
          "internalType": "struct IWeb2Json.Proof",
          "name": "data",
          "type": "tuple"
        }
      ],
      "name": "addEvent",
      "outputs": [],
      "stateMutability": "nonpayable",
      "type": "function"
    },
    {
      "inputs": [
        {
          "internalType": "string",
          "name": "title",
          "type": "string"
        },
        {
          "internalType": "string",
          "name": "description",
          "type": "string"
        },
        {
          "internalType": "string",
          "name": "outcome1",
          "type": "string"
        },
        {
          "internalType": "string",
          "name": "outcome2",
          "type": "string"
        },
        {
          "internalType": "uint256",
          "name": "event_date",
          "type": "uint256"
        }
      ],
      "name": "createMarket",
      "outputs": [],
      "stateMutability": "nonpayable",
      "type": "function"
    },
    {
      "inputs": [
        {
          "internalType": "uint256",
          "name": "",
          "type": "uint256"
        }
      ],
      "name": "events",
      "outputs": [
        {
          "internalType": "string",
          "name": "name",
          "type": "string"
        },
        {
          "internalType": "bool",
          "name": "eventHappened",
          "type": "bool"
        }
      ],
      "stateMutability": "view",
      "type": "function"
    },
    {
      "inputs": [
        {
          "internalType": "uint256",
          "name": "marketId",
          "type": "uint256"
        }
      ],
      "name": "getMarket",
      "outputs": [
        {
          "components": [
            {
              "internalType": "string",
              "name": "title",
              "type": "string"
            },
            {
              "internalType": "string",
              "name": "description",
              "type": "string"
            },
            {
              "internalType": "string",
              "name": "outcome1",
              "type": "string"
            },
            {
              "internalType": "string",
              "name": "outcome2",
              "type": "string"
            },
            {
              "internalType": "contract TemporaryClearingHouse",
              "name": "clearingHouse1",
              "type": "address"
            },
            {
              "internalType": "contract TemporaryClearingHouse",
              "name": "clearingHouse2",
              "type": "address"
            },
            {
              "internalType": "uint256",
              "name": "event_date",
              "type": "uint256"
            },
            {
              "internalType": "enum FlareEnough.Status",
              "name": "status",
              "type": "uint8"
            }
          ],
          "internalType": "struct FlareEnough.Market",
          "name": "",
          "type": "tuple"
        }
      ],
      "stateMutability": "view",
      "type": "function"
    },
    {
      "inputs": [],
      "name": "getMarketsCount",
      "outputs": [
        {
          "internalType": "uint256",
          "name": "",
          "type": "uint256"
        }
      ],
      "stateMutability": "view",
      "type": "function"
    },
    {
      "inputs": [
        {
          "internalType": "uint256",
          "name": "",
          "type": "uint256"
        }
      ],
      "name": "markets",
      "outputs": [
        {
          "internalType": "string",
          "name": "title",
          "type": "string"
        },
        {
          "internalType": "string",
          "name": "description",
          "type": "string"
        },
        {
          "internalType": "string",
          "name": "outcome1",
          "type": "string"
        },
        {
          "internalType": "string",
          "name": "outcome2",
          "type": "string"
        },
        {
          "internalType": "contract TemporaryClearingHouse",
          "name": "clearingHouse1",
          "type": "address"
        },
        {
          "internalType": "contract TemporaryClearingHouse",
          "name": "clearingHouse2",
          "type": "address"
        },
        {
          "internalType": "uint256",
          "name": "event_date",
          "type": "uint256"
        },
        {
          "internalType": "enum FlareEnough.Status",
          "name": "status",
          "type": "uint8"
        }
      ],
      "stateMutability": "view",
      "type": "function"
    },
    {
      "inputs": [],
      "name": "owner",
      "outputs": [
        {
          "internalType": "address",
          "name": "",
          "type": "address"
        }
      ],
      "stateMutability": "view",
      "type": "function"
    },
    {
      "inputs": [],
      "name": "renounceOwnership",
      "outputs": [],
      "stateMutability": "nonpayable",
      "type": "function"
    },
    {
      "inputs": [
        {
          "internalType": "address",
          "name": "newOwner",
          "type": "address"
        }
      ],
      "name": "transferOwnership",
      "outputs": [],
      "stateMutability": "nonpayable",
      "type": "function"
    },
    {
      "inputs": [],
      "name": "usdcToken",
      "outputs": [
        {
          "internalType": "contract IERC20",
          "name": "",
          "type": "address"
        }
      ],
      "stateMutability": "view",
      "type": "function"
    }
  ],
  "bytecode": "0x608060405234801561001057600080fd5b50604051614b88380380614b8883398101604081905261002f916100d4565b338061005557604051631e4fbdf760e01b81526000600482015260240160405180910390fd5b61005e81610084565b50600380546001600160a01b0319166001600160a01b0392909216919091179055610104565b600080546001600160a01b038381166001600160a01b0319831681178455604051919092169283917f8be0079c531659141344cd1fd0a4f28419497f9722a3daafe3b4186f6b6457e09190a35050565b6000602082840312156100e657600080fd5b81516001600160a01b03811681146100fd57600080fd5b9392505050565b614a75806101136000396000f3fe608060405234801561001057600080fd5b50600436106100a95760003560e01c8063715018a611610071578063715018a61461013a5780638da5cb5b14610142578063b1283e7714610153578063bf143f1b1461017a578063eb44fdd31461018d578063f2fde38b146101ad57600080fd5b80630b791430146100ae57806311eac855146100d857806327fa35c3146101035780633efa2e65146101145780633f4a5d0a14610127575b600080fd5b6100c16100bc3660046110a8565b6101c0565b6040516100cf929190611107565b60405180910390f35b6003546100eb906001600160a01b031681565b6040516001600160a01b0390911681526020016100cf565b6002546040519081526020016100cf565b61012561012236600461112b565b50565b005b61012561013536600461120f565b610267565b6101256103f3565b6000546001600160a01b03166100eb565b6101666101613660046110a8565b610407565b6040516100cf98979695949392919061130b565b610125610188366004611396565b610691565b6101a061019b3660046110a8565b610795565b6040516100cf91906113d0565b6101256101bb3660046114b4565b610abd565b6001602052600090815260409020805481906101db906114d1565b80601f0160208091040260200160405190810160405280929190818152602001828054610207906114d1565b80156102545780601f1061022957610100808354040283529160200191610254565b820191906000526020600020905b81548152906001019060200180831161023757829003601f168201915b5050506001909301549192505060ff1682565b61026f610af8565b60028054600181018083556000838152919290839081106102925761029261150b565b600091825260209091206008909102019050806102af888261156f565b50600181016102be878261156f565b50600281016102cd868261156f565b50600381016102dc858261156f565b506003546040516001600160a01b03909116906102f890611034565b6001600160a01b039091168152602001604051809103906000f080158015610324573d6000803e3d6000fd5b506004820180546001600160a01b0319166001600160a01b0392831617905560035460405191169061035590611034565b6001600160a01b039091168152602001604051809103906000f080158015610381573d6000803e3d6000fd5b506005820180546001600160a01b0319166001600160a01b03929092169190911790556006810183905560078101805460ff191690556040805183815290517f25b2eff8f9cbb97c6c73adf7d94f4f8956260becc65ab075709db7561914a2b19181900360200190a150505050505050565b6103fb610af8565b6104056000610b25565b565b6002818154811061041757600080fd5b906000526020600020906008020160009150905080600001805461043a906114d1565b80601f0160208091040260200160405190810160405280929190818152602001828054610466906114d1565b80156104b35780601f10610488576101008083540402835291602001916104b3565b820191906000526020600020905b81548152906001019060200180831161049657829003601f168201915b5050505050908060010180546104c8906114d1565b80601f01602080910402602001604051908101604052809291908181526020018280546104f4906114d1565b80156105415780601f1061051657610100808354040283529160200191610541565b820191906000526020600020905b81548152906001019060200180831161052457829003601f168201915b505050505090806002018054610556906114d1565b80601f0160208091040260200160405190810160405280929190818152602001828054610582906114d1565b80156105cf5780601f106105a4576101008083540402835291602001916105cf565b820191906000526020600020905b8154815290600101906020018083116105b257829003601f168201915b5050505050908060030180546105e4906114d1565b80601f0160208091040260200160405190810160405280929190818152602001828054610610906114d1565b801561065d5780601f106106325761010080835404028352916020019161065d565b820191906000526020600020905b81548152906001019060200180831161064057829003601f168201915b5050505060048301546005840154600685015460079095015493946001600160a01b03928316949290911692509060ff1688565b61069a81610b75565b6106db5760405162461bcd60e51b815260206004820152600d60248201526c24b73b30b634b210383937b7b360991b60448201526064015b60405180910390fd5b60006106ea602083018361162d565b6106f89060a081019061164d565b6107029080611663565b81019061070f91906116be565b60408051808201825260208084015182528284015115158183015283516000908152600190915291909120815192935090918291908190610750908261156f565b50602091909101516001909101805460ff1916911515919091179055604082015115610788578151610783906001610bf1565b505050565b8151610783906002610bf1565b61079d611041565b60025482106107e65760405162461bcd60e51b815260206004820152601560248201527413585c9ad95d08191bd95cc81b9bdd08195e1a5cdd605a1b60448201526064016106d2565b600282815481106107f9576107f961150b565b906000526020600020906008020160405180610100016040529081600082018054610823906114d1565b80601f016020809104026020016040519081016040528092919081815260200182805461084f906114d1565b801561089c5780601f106108715761010080835404028352916020019161089c565b820191906000526020600020905b81548152906001019060200180831161087f57829003601f168201915b505050505081526020016001820180546108b5906114d1565b80601f01602080910402602001604051908101604052809291908181526020018280546108e1906114d1565b801561092e5780601f106109035761010080835404028352916020019161092e565b820191906000526020600020905b81548152906001019060200180831161091157829003601f168201915b50505050508152602001600282018054610947906114d1565b80601f0160208091040260200160405190810160405280929190818152602001828054610973906114d1565b80156109c05780601f10610995576101008083540402835291602001916109c0565b820191906000526020600020905b8154815290600101906020018083116109a357829003601f168201915b505050505081526020016003820180546109d9906114d1565b80601f0160208091040260200160405190810160405280929190818152602001828054610a05906114d1565b8015610a525780601f10610a2757610100808354040283529160200191610a52565b820191906000526020600020905b815481529060010190602001808311610a3557829003601f168201915b505050918352505060048201546001600160a01b039081166020830152600583015416604082015260068201546060820152600782015460809091019060ff166002811115610aa357610aa36112d3565b6002811115610ab457610ab46112d3565b90525092915050565b610ac5610af8565b6001600160a01b038116610aef57604051631e4fbdf760e01b8152600060048201526024016106d2565b61012281610b25565b6000546001600160a01b031633146104055760405163118cdaa760e01b81523360048201526024016106d2565b600080546001600160a01b038381166001600160a01b0319831681178455604051919092169283917f8be0079c531659141344cd1fd0a4f28419497f9722a3daafe3b4186f6b6457e09190a35050565b6000610b7f610f62565b6001600160a01b031663d2d3a41f836040518263ffffffff1660e01b8152600401610baa91906119e2565b602060405180830381865afa158015610bc7573d6000803e3d6000fd5b505050506040513d601f19601f82011682018060405250810190610beb9190611a7f565b92915050565b6002548210610c3a5760405162461bcd60e51b815260206004820152601560248201527413585c9ad95d08191bd95cc81b9bdd08195e1a5cdd605a1b60448201526064016106d2565b600060028381548110610c4f57610c4f61150b565b600091825260209091206007600890920201015460ff166002811115610c7757610c776112d3565b14610cd75760405162461bcd60e51b815260206004820152602a60248201527f4d61726b6574206d75737420626520696e2050656e64696e672073746174757360448201526920746f206368616e676560b01b60648201526084016106d2565b8060028381548110610ceb57610ceb61150b565b60009182526020909120600760089092020101805460ff19166001836002811115610d1857610d186112d3565b02179055506001816002811115610d3157610d316112d3565b03610e315760028281548110610d4957610d4961150b565b600091825260208220600460089092020181015460408051633db5f76960e01b815290516001600160a01b0390921693633db5f7699382810193919282900301818387803b158015610d9a57600080fd5b505af1158015610dae573d6000803e3d6000fd5b5050505060028281548110610dc557610dc561150b565b60009182526020822060056008909202010154604080516332eef3e560e21b815290516001600160a01b039092169263cbbbcf949260048084019382900301818387803b158015610e1557600080fd5b505af1158015610e29573d6000803e3d6000fd5b505050505050565b6002816002811115610e4557610e456112d3565b03610f295760028281548110610e5d57610e5d61150b565b6000918252602082206004600890920201810154604080516332eef3e560e21b815290516001600160a01b039092169363cbbbcf949382810193919282900301818387803b158015610eae57600080fd5b505af1158015610ec2573d6000803e3d6000fd5b5050505060028281548110610ed957610ed961150b565b6000918252602082206005600890920201015460408051633db5f76960e01b815290516001600160a01b0390921692633db5f7699260048084019382900301818387803b158015610e1557600080fd5b60405162461bcd60e51b815260206004820152600e60248201526d496e76616c69642073746174757360901b60448201526064016106d2565b600073ad67fe66660fb8dfe9d6b1b4240d8650e30f60196001600160a01b031663159354a2604051602001610fba906020808252600f908201526e233231ab32b934b334b1b0ba34b7b760891b604082015260600190565b604051602081830303815290604052805190602001206040518263ffffffff1660e01b8152600401610fee91815260200190565b602060405180830381865afa15801561100b573d6000803e3d6000fd5b505050506040513d601f19601f8201168201806040525081019061102f9190611a9c565b905090565b612f8680611aba83390190565b6040518061010001604052806060815260200160608152602001606081526020016060815260200160006001600160a01b0316815260200160006001600160a01b0316815260200160008152602001600060028111156110a3576110a36112d3565b905290565b6000602082840312156110ba57600080fd5b5035919050565b6000815180845260005b818110156110e7576020818501810151868301820152016110cb565b506000602082860101526020601f19601f83011685010191505092915050565b60408152600061111a60408301856110c1565b905082151560208301529392505050565b60006020828403121561113d57600080fd5b81356001600160401b0381111561115357600080fd5b82016060818503121561116557600080fd5b9392505050565b634e487b7160e01b600052604160045260246000fd5b600082601f83011261119357600080fd5b81356001600160401b038111156111ac576111ac61116c565b604051601f8201601f19908116603f011681016001600160401b03811182821017156111da576111da61116c565b6040528181528382016020018510156111f257600080fd5b816020850160208301376000918101602001919091529392505050565b600080600080600060a0868803121561122757600080fd5b85356001600160401b0381111561123d57600080fd5b61124988828901611182565b95505060208601356001600160401b0381111561126557600080fd5b61127188828901611182565b94505060408601356001600160401b0381111561128d57600080fd5b61129988828901611182565b93505060608601356001600160401b038111156112b557600080fd5b6112c188828901611182565b95989497509295608001359392505050565b634e487b7160e01b600052602160045260246000fd5b6003811061130757634e487b7160e01b600052602160045260246000fd5b9052565b6101008152600061132061010083018b6110c1565b8281036020840152611332818b6110c1565b90508281036040840152611346818a6110c1565b9050828103606084015261135a81896110c1565b6001600160a01b038881166080860152871660a085015260c084018690529150611389905060e08301846112e9565b9998505050505050505050565b6000602082840312156113a857600080fd5b81356001600160401b038111156113be57600080fd5b82016040818503121561116557600080fd5b602081526000825161010060208401526113ee6101208401826110c1565b90506020840151601f1984830301604085015261140b82826110c1565b9150506040840151601f1984830301606085015261142982826110c1565b9150506060840151601f1984830301608085015261144782826110c1565b915050608084015161146460a08501826001600160a01b03169052565b5060a08401516001600160a01b03811660c08501525060c084015160e084015260e08401516114976101008501826112e9565b509392505050565b6001600160a01b038116811461012257600080fd5b6000602082840312156114c657600080fd5b81356111658161149f565b600181811c908216806114e557607f821691505b60208210810361150557634e487b7160e01b600052602260045260246000fd5b50919050565b634e487b7160e01b600052603260045260246000fd5b601f82111561078357806000526020600020601f840160051c810160208510156115485750805b601f840160051c820191505b818110156115685760008155600101611554565b5050505050565b81516001600160401b038111156115885761158861116c565b61159c8161159684546114d1565b84611521565b6020601f8211600181146115d057600083156115b85750848201515b600019600385901b1c1916600184901b178455611568565b600084815260208120601f198516915b8281101561160057878501518255602094850194600190920191016115e0565b508482101561161e5786840151600019600387901b60f8161c191681555b50505050600190811b01905550565b6000823560be1983360301811261164357600080fd5b9190910192915050565b60008235601e1983360301811261164357600080fd5b6000808335601e1984360301811261167a57600080fd5b8301803591506001600160401b0382111561169457600080fd5b6020019150368190038213156116a957600080fd5b9250929050565b801515811461012257600080fd5b6000602082840312156116d057600080fd5b81356001600160401b038111156116e657600080fd5b8201606081850312156116f857600080fd5b604051606081016001600160401b038111828210171561171a5761171a61116c565b6040528135815260208201356001600160401b0381111561173a57600080fd5b61174686828501611182565b6020830152506040820135915061175c826116b0565b60408101919091529392505050565b6000823560be1983360301811261178157600080fd5b90910192915050565b80356001600160401b03811681146117a157600080fd5b919050565b6000808335601e198436030181126117bd57600080fd5b83016020810192503590506001600160401b038111156117dc57600080fd5b8036038213156116a957600080fd5b81835281816020850137506000828201602090810191909152601f909101601f19169091010190565b600061182082836117a6565b60e0855261183260e0860182846117eb565b91505061184260208401846117a6565b85830360208701526118558382846117eb565b9250505061186660408401846117a6565b85830360408701526118798382846117eb565b9250505061188a60608401846117a6565b858303606087015261189d8382846117eb565b925050506118ae60808401846117a6565b85830360808701526118c18382846117eb565b925050506118d260a08401846117a6565b85830360a08701526118e58382846117eb565b925050506118f660c08401846117a6565b85830360c08701526119098382846117eb565b9695505050505050565b60008235601e1983360301811261178157600080fd5b600061193582836117a6565b602085526119476020860182846117eb565b95945050505050565b803582526020808201359083015260006001600160401b036119746040840161178a565b1660408401526001600160401b0361198e6060840161178a565b166060840152608082013560de198336030181126119ab57600080fd5b60c060808501526119c160c08501848301611814565b90506119d060a0840184611913565b84820360a08601526119478282611929565b6020815260008235601e198436030181126119fc57600080fd5b83016020810190356001600160401b03811115611a1857600080fd5b8060051b803603831315611a2b57600080fd5b60406020860152606085018290526001600160fb1b03821115611a4d57600080fd5b8083608087013784019150611a679050602085018561176b565b60608483030160408501526119476080830182611950565b600060208284031215611a9157600080fd5b8151611165816116b0565b600060208284031215611aae57600080fd5b81516111658161149f56fe608060405234801561001057600080fd5b50604051612f86380380612f8683398101604081905261002f9161012f565b6001805561005d7fa49807205ce4d355092ef5a8a18f56e8913cf4a201fbe287825b095693c2177533610083565b50600280546001600160a01b0319166001600160a01b039290921691909117905561015f565b6000828152602081815260408083206001600160a01b038516845290915281205460ff16610125576000838152602081815260408083206001600160a01b03861684529091529020805460ff191660011790556100dd3390565b6001600160a01b0316826001600160a01b0316847f2f8788117e7eff1d82e926ec794901d17c78024a50270940304540a733656f0d60405160405180910390a4506001610129565b5060005b92915050565b60006020828403121561014157600080fd5b81516001600160a01b038116811461015857600080fd5b9392505050565b612e188061016e6000396000f3fe608060405234801561001057600080fd5b506004361061023c5760003560e01c80638151760f1161013b578063a88e76f4116100b8578063d547741f1161007c578063d547741f14610585578063e1edf9a714610598578063fba225b9146105ab578063fc7e286d146105be578063fd7192fc146105de57600080fd5b8063a88e76f414610531578063ba4243c114610544578063caf3f98014610557578063cb1b09171461056a578063cbbbcf941461057d57600080fd5b806391d14854116100ff57806391d1485414610458578063a20b6e341461046b578063a20c6a4e146104b2578063a217fddf14610509578063a629a83a1461051157600080fd5b80638151760f1461040257806384148d061461040a57806387110cab1461041d57806389a30271146104255780638bf30ec91461042f57600080fd5b80632f2ff15d116101c95780633a3610bc1161018d5780633a3610bc146103885780633ccfd60b146103b85780633db5f769146103c057806375b238fc146103c85780637ed83faf146103ef57600080fd5b80632f2ff15d1461032757806336568abe1461033a57806336679e6d1461034d57806336cccdad1461036d578063372d839d1461038057600080fd5b806303f1e20a1161021057806303f1e20a146102a357806311eac855146102ac578063200d2ed2146102d75780632357928e146102f1578063248a9ca31461030457600080fd5b80629bd44c1461024157806301ffc9a714610256578063032a56711461027e57806303620a3f14610290575b600080fd5b61025461024f366004612900565b6105f1565b005b610269610264366004612919565b6107ee565b60405190151581526020015b60405180910390f35b6006545b604051908152602001610275565b61025461029e36600461295f565b610825565b61028260095481565b6002546102bf906001600160a01b031681565b6040516001600160a01b039091168152602001610275565b6008546102e49060ff1681565b60405161027591906129bd565b6102546102ff366004612900565b610878565b610282610312366004612900565b60009081526020819052604090206001015490565b6102546103353660046129e5565b6109aa565b6102546103483660046129e5565b6109d5565b61028261035b366004612a15565b60046020526000908152604090205481565b61025461037b366004612a32565b610a0d565b610282610c55565b610390610c76565b6040805193845260009290920b602084015267ffffffffffffffff1690820152606001610275565b610254610d29565b610254610fbb565b6102827fa49807205ce4d355092ef5a8a18f56e8913cf4a201fbe287825b095693c2177581565b6102546103fd366004612a32565b611054565b600554610282565b610254610418366004612900565b611293565b600754610282565b610282620f424081565b61025461043d366004612a63565b600991909155600a805460ff191660ff909216919091179055565b6102696104663660046129e5565b6112ff565b61047e610479366004612900565b611328565b604080516001600160a01b03909616865293151560208601529284019190915260608301521515608082015260a001610275565b6104c56104c0366004612900565b611379565b604080516001600160a01b0398891681529790961660208801529486019390935260608501919091526080840152151560a0830152151560c082015260e001610275565b610282600081565b600a5461051e9060000b81565b60405160009190910b8152602001610275565b61025461053f366004612900565b6113d8565b61025461055236600461295f565b611667565b61025461056536600461295f565b611a49565b6104c5610578366004612900565b611e01565b610254611e11565b6102546105933660046129e5565b611ff5565b6102546105a636600461295f565b61201a565b6102546105b9366004612900565b612066565b6102826105cc366004612a15565b60036020526000908152604090205481565b6102546105ec366004612900565b6122d4565b600160085460ff16600281111561060a5761060a6129a7565b036106305760405162461bcd60e51b815260040161062790612a88565b60405180910390fd5b60055481106106515760405162461bcd60e51b815260040161062790612ab0565b60006005828154811061066657610666612adb565b60009182526020909120600690910201600581015490915060ff161561069e5760405162461bcd60e51b815260040161062790612af1565b60018101546001600160a01b031633146106ec5760405162461bcd60e51b815260206004820152600f60248201526e2737ba103ab73232b93bb934ba32b960891b6044820152606401610627565b806004015442116107345760405162461bcd60e51b815260206004820152601260248201527113dc1d1a5bdb881b9bdd08195e1c1a5c995960721b6044820152606401610627565b6005810154610100900460ff16156107825760405162461bcd60e51b8152602060048201526011602482015270105b1c9958591e4819195cdd1c9bde5959607a1b6044820152606401610627565b60058101805461ff00191661010017905561079b610c55565b816002015482600301546107af9190612b32565b6107b99190612b49565b60018201546001600160a01b0316600090815260046020526040812080549091906107e5908490612b6b565b90915550505050565b60006001600160e01b03198216637965db0b60e01b148061081f57506301ffc9a760e01b6001600160e01b03198316145b92915050565b600060085460ff16600281111561083e5761083e6129a7565b1461085b5760405162461bcd60e51b815260040161062790612b7e565b61086485610878565b6108718585858585611a49565b5050505050565b600060085460ff166002811115610891576108916129a7565b146108ae5760405162461bcd60e51b815260040161062790612b7e565b6002546040516323b872dd60e01b8152336004820152306024820152604481018390526001600160a01b03909116906323b872dd906064016020604051808303816000875af1158015610905573d6000803e3d6000fd5b505050506040513d601f19601f820116820180604052508101906109299190612bb5565b503360009081526003602052604081208054839290610949908490612b6b565b9091555050336000908152600460205260408120805483929061096d908490612b6b565b909155505060405181815233907f2da466a7b24304f47e87fa2e1e5a81b9831ce54fec19055ce277ca2f39ba42c49060200160405180910390a250565b6000828152602081905260409020600101546109c581612446565b6109cf8383612453565b50505050565b6001600160a01b03811633146109fe5760405163334bd91960e11b815260040160405180910390fd5b610a0882826124e5565b505050565b600160085460ff166002811115610a2657610a266129a7565b03610a435760405162461bcd60e51b815260040161062790612a88565b6006548210610a645760405162461bcd60e51b815260040161062790612ab0565b600060068381548110610a7957610a79612adb565b6000918252602090912060069091020180549091506001600160a01b03163314610ab55760405162461bcd60e51b815260040161062790612bd7565b600581015460ff1615610ada5760405162461bcd60e51b815260040161062790612af1565b8060040154421115610afe5760405162461bcd60e51b815260040161062790612c00565b600780546040805160a08101825233808252600060208084018281528486018b8152606086018b8152600160808801818152908a018b559985529551600489027fa66cc928b5edb82af9bd49922954155ab7b0942694bea4ce44661d9a8736c6888101805494511515600160a01b026001600160a81b03199095166001600160a01b0390931692909217939093179055517fa66cc928b5edb82af9bd49922954155ab7b0942694bea4ce44661d9a8736c68982015593517fa66cc928b5edb82af9bd49922954155ab7b0942694bea4ce44661d9a8736c68a85015595517fa66cc928b5edb82af9bd49922954155ab7b0942694bea4ce44661d9a8736c68b909301805493151560ff19909416939093179092558251918252938101869052919291869184917ff4b3231bef2c91eceedff9d3bc0e7223f87c4b6518e8b572e3d707e0ddd709ac91015b60405180910390a450505050565b600080610c60610c76565b509150610c70905081600a612d0f565b91505090565b6000806000806009541115610c9b575050600954600a54909260009190910b91504290565b6000610ca5612550565b6040516349f4fc0360e11b815266509510cbd554d160c21b600482018190529192506001600160a01b038316906393e9f80690602401606060405180830381865afa158015610cf8573d6000803e3d6000fd5b505050506040513d601f19601f82011682018060405250810190610d1c9190612d1e565b9450945094505050909192565b610d31612619565b600060085460ff166002811115610d4a57610d4a6129a7565b03610d675760405162461bcd60e51b815260040161062790612d6e565b600160085460ff166002811115610d8057610d806129a7565b03610e9c573360009081526003602052604090205480610dd85760405162461bcd60e51b81526020600482015260136024820152724e6f7468696e6720746f20776974686472617760681b6044820152606401610627565b3360008181526003602052604080822091909155600254905163a9059cbb60e01b81526004810192909252602482018390526001600160a01b03169063a9059cbb906044016020604051808303816000875af1158015610e3c573d6000803e3d6000fd5b505050506040513d601f19601f82011682018060405250810190610e609190612bb5565b5060405181815233907f7084f5476618d8e60b11ef0d7d3f06914655adb8793e28ff7f018d4c76d505d59060200160405180910390a250610fb0565b3360009081526004602052604090205480610eef5760405162461bcd60e51b81526020600482015260136024820152724e6f7468696e6720746f20776974686472617760681b6044820152606401610627565b33600081815260046020819052604080832092909255600254915163a9059cbb60e01b815290810192909252602482018390526001600160a01b03169063a9059cbb906044016020604051808303816000875af1158015610f54573d6000803e3d6000fd5b505050506040513d601f19601f82011682018060405250810190610f789190612bb5565b5060405181815233907f7084f5476618d8e60b11ef0d7d3f06914655adb8793e28ff7f018d4c76d505d59060200160405180910390a2505b610fb960018055565b565b600060085460ff166002811115610fd457610fd46129a7565b14610ff15760405162461bcd60e51b815260040161062790612b7e565b7fa49807205ce4d355092ef5a8a18f56e8913cf4a201fbe287825b095693c2177561101b81612446565b6008805460ff191660021790556040517fc8c9a0553d39adb3c6a05a221391c8bed0303510816a373eef652849f7bfd72990600090a150565b600160085460ff16600281111561106d5761106d6129a7565b0361108a5760405162461bcd60e51b815260040161062790612a88565b60055482106110ab5760405162461bcd60e51b815260040161062790612ab0565b6000600583815481106110c0576110c0612adb565b6000918252602090912060069091020180549091506001600160a01b031633146110fc5760405162461bcd60e51b815260040161062790612bd7565b600581015460ff16156111215760405162461bcd60e51b815260040161062790612af1565b80600401544211156111455760405162461bcd60e51b815260040161062790612c00565b600780546040805160a08101825233808252600160208084018281528486018b8152606086018b815260808701858152858a018b5560009a909a529551600489027fa66cc928b5edb82af9bd49922954155ab7b0942694bea4ce44661d9a8736c6888101805494511515600160a01b026001600160a81b03199095166001600160a01b0390931692909217939093179055517fa66cc928b5edb82af9bd49922954155ab7b0942694bea4ce44661d9a8736c68982015593517fa66cc928b5edb82af9bd49922954155ab7b0942694bea4ce44661d9a8736c68a85015595517fa66cc928b5edb82af9bd49922954155ab7b0942694bea4ce44661d9a8736c68b909301805493151560ff19909416939093179092558251918252938101869052919291869184917ff4b3231bef2c91eceedff9d3bc0e7223f87c4b6518e8b572e3d707e0ddd709ac9101610c47565b600160085460ff1660028111156112ac576112ac6129a7565b036112c95760405162461bcd60e51b815260040161062790612a88565b60065481106112ea5760405162461bcd60e51b815260040161062790612ab0565b60006006828154811061066657610666612adb565b6000918252602082815260408084206001600160a01b0393909316845291905290205460ff1690565b6007818154811061133857600080fd5b600091825260209091206004909102018054600182015460028301546003909301546001600160a01b038316945060ff600160a01b90930483169391921685565b6006818154811061138957600080fd5b60009182526020909120600690910201805460018201546002830154600384015460048501546005909501546001600160a01b0394851696509390921693909260ff8082169161010090041687565b600160085460ff1660028111156113f1576113f16129a7565b0361140e5760405162461bcd60e51b815260040161062790612a88565b600554811061142f5760405162461bcd60e51b815260040161062790612ab0565b60006005828154811061144457611444612adb565b6000918252602090912060069091020180549091506001600160a01b031633146114805760405162461bcd60e51b815260040161062790612bd7565b600581015460ff16156114a55760405162461bcd60e51b815260040161062790612af1565b80600401544211156114c95760405162461bcd60e51b815260040161062790612c00565b6000806114d4610c76565b509150915060008160000b12156115205760405162461bcd60e51b815260206004820152601060248201526f496e76616c696420646563696d616c7360801b6044820152606401610627565b6002830154828181111561162357600061153b84600a612d0f565b600387015461154a8585612db2565b6115549190612b32565b61155e9190612b49565b60018701546001600160a01b03166000908152600460205260409020549091508111156115c25760405162461bcd60e51b815260206004820152601260248201527153656c6c6572206c61636b732066756e647360701b6044820152606401610627565b60018601546001600160a01b0316600090815260046020526040812080548392906115ee908490612db2565b909155505085546001600160a01b03166000908152600460205260408120805483929061161c908490612b6b565b9091555050505b60058501805460ff19166001179055604051339087907f74ebbab24ee8774729982ac100f931306b160f431f7f1483cc380186d56754bc90600090a3505050505050565b600060085460ff166002811115611680576116806129a7565b1461169d5760405162461bcd60e51b815260040161062790612b7e565b336001600160a01b0385166116e55760405162461bcd60e51b815260206004820152600e60248201526d24b73b30b634b21039b2b63632b960911b6044820152606401610627565b4282116117255760405162461bcd60e51b815260206004820152600e60248201526d496e76616c69642065787069727960901b6044820152606401610627565b6001600160a01b03811660009081526004602052604090205486111561178d5760405162461bcd60e51b815260206004820181905260248201527f4275796572206c61636b732066756e647320746f20706179207072656d69756d6044820152606401610627565b6001600160a01b038116600090815260046020526040812080548892906117b5908490612db2565b90915550506001600160a01b038516600090815260046020526040812080548892906117e2908490612b6b565b90915550600090506117f2610c55565b6117fc8686612b32565b6118069190612b49565b6001600160a01b03871660009081526004602052604090205490915081111561186b5760405162461bcd60e51b815260206004820152601760248201527614d95b1b195c881b1858dadcc818dbdb1b185d195c985b604a1b6044820152606401610627565b6001600160a01b03861660009081526004602052604081208054839290611893908490612db2565b9091555050600580546040805160e081018252338082526001600160a01b038b8116602084018181528486018d8152606086018d8152608087018d8152600060a0890181815260c08a0182815260018d018e559c8252985160068c027f036b6384b5eca791c62761152d0c79bb0604c104a5fb6f4eb0703f3154bb3db081018054928a166001600160a01b031993841617905595517f036b6384b5eca791c62761152d0c79bb0604c104a5fb6f4eb0703f3154bb3db1870180549190991691161790965591517f036b6384b5eca791c62761152d0c79bb0604c104a5fb6f4eb0703f3154bb3db2840155517f036b6384b5eca791c62761152d0c79bb0604c104a5fb6f4eb0703f3154bb3db3830155517f036b6384b5eca791c62761152d0c79bb0604c104a5fb6f4eb0703f3154bb3db482015593517f036b6384b5eca791c62761152d0c79bb0604c104a5fb6f4eb0703f3154bb3db59094018054975115156101000261ff00199515159590951661ffff19909816979097179390931790955591519293909284917fadd7a9f0ecc251098cacc1d016be5cb2a6d025381843cd5e5e03ff2e0274396b91a45050505050505050565b600160085460ff166002811115611a6257611a626129a7565b03611a7f5760405162461bcd60e51b815260040161062790612a88565b336001600160a01b038516611ac75760405162461bcd60e51b815260206004820152600e60248201526d24b73b30b634b21039b2b63632b960911b6044820152606401610627565b428211611b075760405162461bcd60e51b815260206004820152600e60248201526d496e76616c69642065787069727960901b6044820152606401610627565b6001600160a01b038116600090815260046020526040902054861115611b6f5760405162461bcd60e51b815260206004820181905260248201527f4275796572206c61636b732066756e647320746f20706179207072656d69756d6044820152606401610627565b6001600160a01b03811660009081526004602052604081208054889290611b97908490612db2565b90915550506001600160a01b03851660009081526004602052604081208054889290611bc4908490612b6b565b9091555060009050611bd4610c55565b611bde8686612b32565b611be89190612b49565b6001600160a01b038716600090815260046020526040902054909150811115611c4d5760405162461bcd60e51b815260206004820152601760248201527614d95b1b195c881b1858dadcc818dbdb1b185d195c985b604a1b6044820152606401610627565b6001600160a01b03861660009081526004602052604081208054839290611c75908490612db2565b925050819055506000600680549050905060066040518060e00160405280336001600160a01b03168152602001896001600160a01b0316815260200188815260200187815260200186815260200160001515815260200160001515815250908060018154018082558091505060019003906000526020600020906006020160009091909190915060008201518160000160006101000a8154816001600160a01b0302191690836001600160a01b0316021790555060208201518160010160006101000a8154816001600160a01b0302191690836001600160a01b0316021790555060408201518160020155606082015181600301556080820151816004015560a08201518160050160006101000a81548160ff02191690831515021790555060c08201518160050160016101000a81548160ff0219169083151502179055505050866001600160a01b0316336001600160a01b0316827f276c5c382d854db896b2c3a61657178d5ca2278f683551822bb5c0f7bceeaa8460405160405180910390a45050505050505050565b6005818154811061138957600080fd5b600060085460ff166002811115611e2a57611e2a6129a7565b14611e475760405162461bcd60e51b815260040161062790612b7e565b7fa49807205ce4d355092ef5a8a18f56e8913cf4a201fbe287825b095693c21775611e7181612446565b6008805460ff1916600117905560005b600554811015611ee757600060058281548110611ea057611ea0612adb565b600091825260209091206006909102018054909150611ec7906001600160a01b0316612643565b6001810154611ede906001600160a01b0316612643565b50600101611e81565b5060005b600654811015611f5157600060068281548110611f0a57611f0a612adb565b600091825260209091206006909102018054909150611f31906001600160a01b0316612643565b6001810154611f48906001600160a01b0316612643565b50600101611eeb565b5060005b600754811015611fa457600060078281548110611f7457611f74612adb565b600091825260209091206004909102018054909150611f9b906001600160a01b0316612643565b50600101611f55565b50611fb160056000612833565b611fbd60066000612833565b611fc960076000612854565b6040517fe1cdf1bd1b09ec8720f86614b0df95a0e2d1e0fc5c126f294604b904f29548bc90600090a150565b60008281526020819052604090206001015461201081612446565b6109cf83836124e5565b600060085460ff166002811115612033576120336129a7565b146120505760405162461bcd60e51b815260040161062790612b7e565b61205985610878565b6108718585858585611667565b600160085460ff16600281111561207f5761207f6129a7565b0361209c5760405162461bcd60e51b815260040161062790612a88565b60075481106120e05760405162461bcd60e51b815260206004820152601060248201526f125b9d985b1a59081bdc99195c88125160821b6044820152606401610627565b6000600782815481106120f5576120f5612adb565b60009182526020909120600490910201600381015490915060ff1661214d5760405162461bcd60e51b815260206004820152600e60248201526d24b730b1ba34bb329037b93232b960911b6044820152606401610627565b60028101543360009081526004602052604090205410156121b05760405162461bcd60e51b815260206004820152601c60248201527f496e73756666696369656e74207669727475616c2062616c616e6365000000006044820152606401610627565b600281015433600090815260046020526040812080549091906121d4908490612db2565b9091555050600281015481546001600160a01b031660009081526004602052604081208054909190612207908490612b6b565b90915550508054600160a01b900460ff161561225c576000600582600101548154811061223657612236612adb565b6000918252602090912060069091020180546001600160a01b0319163317905550612297565b6000600682600101548154811061227557612275612adb565b6000918252602090912060069091020180546001600160a01b03191633179055505b60038101805460ff19169055604051339083907f74ebbab24ee8774729982ac100f931306b160f431f7f1483cc380186d56754bc90600090a35050565b600160085460ff1660028111156122ed576122ed6129a7565b0361230a5760405162461bcd60e51b815260040161062790612a88565b600654811061232b5760405162461bcd60e51b815260040161062790612ab0565b60006006828154811061234057612340612adb565b6000918252602090912060069091020180549091506001600160a01b0316331461237c5760405162461bcd60e51b815260040161062790612bd7565b600581015460ff16156123a15760405162461bcd60e51b815260040161062790612af1565b80600401544211156123c55760405162461bcd60e51b815260040161062790612c00565b6000806123d0610c76565b509150915060008160000b121561241c5760405162461bcd60e51b815260206004820152601060248201526f496e76616c696420646563696d616c7360801b6044820152606401610627565b6002830154828082111561162357600061243784600a612d0f565b600387015461154a8486612db2565b61245081336127fa565b50565b600061245f83836112ff565b6124dd576000838152602081815260408083206001600160a01b03861684529091529020805460ff191660011790556124953390565b6001600160a01b0316826001600160a01b0316847f2f8788117e7eff1d82e926ec794901d17c78024a50270940304540a733656f0d60405160405180910390a450600161081f565b50600061081f565b60006124f183836112ff565b156124dd576000838152602081815260408083206001600160a01b0386168085529252808320805460ff1916905551339286917ff6391f5c32d9c69d2a47ea670b442974b53935d1edc7fd64eb21e047a839171b9190a450600161081f565b600073ad67fe66660fb8dfe9d6b1b4240d8650e30f60196001600160a01b031663159354a260405160200161259f90602080825260069082015265233a39b7ab1960d11b604082015260600190565b604051602081830303815290604052805190602001206040518263ffffffff1660e01b81526004016125d391815260200190565b602060405180830381865afa1580156125f0573d6000803e3d6000fd5b505050506040513d601f19601f820116820180604052508101906126149190612dc5565b905090565b60026001540361263c57604051633ee5aeb560e01b815260040160405180910390fd5b6002600155565b600060085460ff16600281111561265c5761265c6129a7565b036126795760405162461bcd60e51b815260040161062790612d6e565b600160085460ff166002811115612692576126926129a7565b0361278c576001600160a01b0381166000908152600360205260409020548015612788576001600160a01b0382811660008181526003602052604080822091909155600254905163a9059cbb60e01b81526004810192909252602482018490529091169063a9059cbb906044015b6020604051808303816000875af115801561271f573d6000803e3d6000fd5b505050506040513d601f19601f820116820180604052508101906127439190612bb5565b50816001600160a01b03167f7084f5476618d8e60b11ef0d7d3f06914655adb8793e28ff7f018d4c76d505d58260405161277f91815260200190565b60405180910390a25b5050565b6001600160a01b0381166000908152600460205260409020548015612788576001600160a01b03828116600081815260046020819052604080832092909255600254915163a9059cbb60e01b815290810192909252602482018490529091169063a9059cbb90604401612700565b61280482826112ff565b6127885760405163e2517d3f60e01b81526001600160a01b038216600482015260248101839052604401610627565b50805460008255600602906000526020600020908101906124509190612875565b508054600082556004029060005260206000209081019061245091906128c7565b5b808211156128c35780546001600160a01b03199081168255600182018054909116905560006002820181905560038201819055600482015560058101805461ffff19169055600601612876565b5090565b5b808211156128c35780546001600160a81b0319168155600060018201819055600282015560038101805460ff191690556004016128c8565b60006020828403121561291257600080fd5b5035919050565b60006020828403121561292b57600080fd5b81356001600160e01b03198116811461294357600080fd5b9392505050565b6001600160a01b038116811461245057600080fd5b600080600080600060a0868803121561297757600080fd5b8535945060208601356129898161294a565b94979496505050506040830135926060810135926080909101359150565b634e487b7160e01b600052602160045260246000fd5b60208101600383106129df57634e487b7160e01b600052602160045260246000fd5b91905290565b600080604083850312156129f857600080fd5b823591506020830135612a0a8161294a565b809150509250929050565b600060208284031215612a2757600080fd5b81356129438161294a565b60008060408385031215612a4557600080fd5b50508035926020909101359150565b8060000b811461245057600080fd5b60008060408385031215612a7657600080fd5b823591506020830135612a0a81612a54565b6020808252600e908201526d14de5cdd195b4818589bdc9d195960921b604082015260600190565b602080825260119082015270125b9d985b1a59081bdc1d1a5bdb881251607a1b604082015260600190565b634e487b7160e01b600052603260045260246000fd5b602080825260119082015270105b1c9958591e48195e195c98da5cd959607a1b604082015260600190565b634e487b7160e01b600052601160045260246000fd5b808202811582820484141761081f5761081f612b1c565b600082612b6657634e487b7160e01b600052601260045260246000fd5b500490565b8082018082111561081f5761081f612b1c565b6020808252601b908201527f53797374656d206e6f7420696e2070656e64696e672073746174650000000000604082015260600190565b600060208284031215612bc757600080fd5b8151801515811461294357600080fd5b6020808252600f908201526e2737ba103cb7bab91037b83a34b7b760891b604082015260600190565b6020808252600e908201526d13dc1d1a5bdb88195e1c1a5c995960921b604082015260600190565b6001815b6001841115612c6357808504811115612c4757612c47612b1c565b6001841615612c5557908102905b60019390931c928002612c2c565b935093915050565b600082612c7a5750600161081f565b81612c875750600061081f565b8160018114612c9d5760028114612ca757612cc3565b600191505061081f565b60ff841115612cb857612cb8612b1c565b50506001821b61081f565b5060208310610133831016604e8410600b8410161715612ce6575081810a61081f565b612cf36000198484612c28565b8060001904821115612d0757612d07612b1c565b029392505050565b600061294360ff841683612c6b565b600080600060608486031215612d3357600080fd5b835192506020840151612d4581612a54565b604085015190925067ffffffffffffffff81168114612d6357600080fd5b809150509250925092565b60208082526024908201527f43616e6e6f7420776974686472617720647572696e672070656e64696e6720736040820152637461746560e01b606082015260800190565b8181038181111561081f5761081f612b1c565b600060208284031215612dd757600080fd5b81516129438161294a56fea264697066735822122081964261037f99a0c09ab92c410c02908ec0c497d6e548fd17fbd96755af802f64736f6c634300081a0033a264697066735822122022ae68f796cb421b011ff245dba1128640f8f7ad54a6501633773a20d809c1d664736f6c634300081a0033",
  "linkReferences": {},
  "deployedLinkReferences": {}
}