{
  "_format": "hh-sol-artifact-1",
  "contractName": "FlareEnough",
  "sourceName": "contracts/FlareEnough.sol",
  "abi": [
    {
      "inputs": [
        {
          "internalType": "contract IERC20",
          "name": "_usdcToken",
          "type": "address"
        }
      ],
      "stateMutability": "nonpayable",
      "type": "constructor"
    },
    {
      "inputs": [
        {
          "internalType": "address",
          "name": "owner",
          "type": "address"
        }
      ],
      "name": "OwnableInvalidOwner",
      "type": "error"
    },
    {
      "inputs": [
        {
          "internalType": "address",
          "name": "account",
          "type": "address"
        }
      ],
      "name": "OwnableUnauthorizedAccount",
      "type": "error"
    },
    {
      "anonymous": false,
      "inputs": [
        {
          "indexed": false,
          "internalType": "uint256",
          "name": "marketId",
          "type": "uint256"
        }
      ],
      "name": "MarketCreated",
      "type": "event"
    },
    {
      "anonymous": false,
      "inputs": [
        {
          "indexed": true,
          "internalType": "address",
          "name": "previousOwner",
          "type": "address"
        },
        {
          "indexed": true,
          "internalType": "address",
          "name": "newOwner",
          "type": "address"
        }
      ],
      "name": "OwnershipTransferred",
      "type": "event"
    },
    {
      "inputs": [
        {
          "components": [
            {
              "internalType": "uint256",
              "name": "eventId",
              "type": "uint256"
            },
            {
              "internalType": "string",
              "name": "name",
              "type": "string"
            },
            {
              "internalType": "bool",
              "name": "eventHappened",
              "type": "bool"
            }
          ],
          "internalType": "struct DataTransportObject",
          "name": "dto",
          "type": "tuple"
        }
      ],
      "name": "abiSignatureHack",
      "outputs": [],
      "stateMutability": "pure",
      "type": "function"
    },
    {
      "inputs": [
        {
          "components": [
            {
              "internalType": "bytes32[]",
              "name": "merkleProof",
              "type": "bytes32[]"
            },
            {
              "components": [
                {
                  "internalType": "bytes32",
                  "name": "attestationType",
                  "type": "bytes32"
                },
                {
                  "internalType": "bytes32",
                  "name": "sourceId",
                  "type": "bytes32"
                },
                {
                  "internalType": "uint64",
                  "name": "votingRound",
                  "type": "uint64"
                },
                {
                  "internalType": "uint64",
                  "name": "lowestUsedTimestamp",
                  "type": "uint64"
                },
                {
                  "components": [
                    {
                      "internalType": "string",
                      "name": "url",
                      "type": "string"
                    },
                    {
                      "internalType": "string",
                      "name": "httpMethod",
                      "type": "string"
                    },
                    {
                      "internalType": "string",
                      "name": "headers",
                      "type": "string"
                    },
                    {
                      "internalType": "string",
                      "name": "queryParams",
                      "type": "string"
                    },
                    {
                      "internalType": "string",
                      "name": "body",
                      "type": "string"
                    },
                    {
                      "internalType": "string",
                      "name": "postProcessJq",
                      "type": "string"
                    },
                    {
                      "internalType": "string",
                      "name": "abiSignature",
                      "type": "string"
                    }
                  ],
                  "internalType": "struct IWeb2Json.RequestBody",
                  "name": "requestBody",
                  "type": "tuple"
                },
                {
                  "components": [
                    {
                      "internalType": "bytes",
                      "name": "abiEncodedData",
                      "type": "bytes"
                    }
                  ],
                  "internalType": "struct IWeb2Json.ResponseBody",
                  "name": "responseBody",
                  "type": "tuple"
                }
              ],
              "internalType": "struct IWeb2Json.Response",
              "name": "data",
              "type": "tuple"
            }
          ],
          "internalType": "struct IWeb2Json.Proof",
          "name": "data",
          "type": "tuple"
        }
      ],
      "name": "addEvent",
      "outputs": [],
      "stateMutability": "nonpayable",
      "type": "function"
    },
    {
      "inputs": [
        {
          "internalType": "string",
          "name": "title",
          "type": "string"
        },
        {
          "internalType": "string",
          "name": "description",
          "type": "string"
        },
        {
          "internalType": "string",
          "name": "outcome1",
          "type": "string"
        },
        {
          "internalType": "string",
          "name": "outcome2",
          "type": "string"
        },
        {
          "internalType": "uint256",
          "name": "event_date",
          "type": "uint256"
        }
      ],
      "name": "createMarket",
      "outputs": [],
      "stateMutability": "nonpayable",
      "type": "function"
    },
    {
      "inputs": [
        {
          "internalType": "uint256",
          "name": "",
          "type": "uint256"
        }
      ],
      "name": "events",
      "outputs": [
        {
          "internalType": "string",
          "name": "name",
          "type": "string"
        },
        {
          "internalType": "bool",
          "name": "eventHappened",
          "type": "bool"
        }
      ],
      "stateMutability": "view",
      "type": "function"
    },
    {
      "inputs": [
        {
          "internalType": "uint256",
          "name": "marketId",
          "type": "uint256"
        }
      ],
      "name": "getMarket",
      "outputs": [
        {
          "components": [
            {
              "internalType": "string",
              "name": "title",
              "type": "string"
            },
            {
              "internalType": "string",
              "name": "description",
              "type": "string"
            },
            {
              "internalType": "string",
              "name": "outcome1",
              "type": "string"
            },
            {
              "internalType": "string",
              "name": "outcome2",
              "type": "string"
            },
            {
              "internalType": "contract TemporaryClearingHouse",
              "name": "clearingHouse1",
              "type": "address"
            },
            {
              "internalType": "contract TemporaryClearingHouse",
              "name": "clearingHouse2",
              "type": "address"
            },
            {
              "internalType": "uint256",
              "name": "event_date",
              "type": "uint256"
            },
            {
              "internalType": "enum FlareEnough.Status",
              "name": "status",
              "type": "uint8"
            }
          ],
          "internalType": "struct FlareEnough.Market",
          "name": "",
          "type": "tuple"
        }
      ],
      "stateMutability": "view",
      "type": "function"
    },
    {
      "inputs": [],
      "name": "getMarketsCount",
      "outputs": [
        {
          "internalType": "uint256",
          "name": "",
          "type": "uint256"
        }
      ],
      "stateMutability": "view",
      "type": "function"
    },
    {
      "inputs": [
        {
          "internalType": "uint256",
          "name": "",
          "type": "uint256"
        }
      ],
      "name": "markets",
      "outputs": [
        {
          "internalType": "string",
          "name": "title",
          "type": "string"
        },
        {
          "internalType": "string",
          "name": "description",
          "type": "string"
        },
        {
          "internalType": "string",
          "name": "outcome1",
          "type": "string"
        },
        {
          "internalType": "string",
          "name": "outcome2",
          "type": "string"
        },
        {
          "internalType": "contract TemporaryClearingHouse",
          "name": "clearingHouse1",
          "type": "address"
        },
        {
          "internalType": "contract TemporaryClearingHouse",
          "name": "clearingHouse2",
          "type": "address"
        },
        {
          "internalType": "uint256",
          "name": "event_date",
          "type": "uint256"
        },
        {
          "internalType": "enum FlareEnough.Status",
          "name": "status",
          "type": "uint8"
        }
      ],
      "stateMutability": "view",
      "type": "function"
    },
    {
      "inputs": [],
      "name": "owner",
      "outputs": [
        {
          "internalType": "address",
          "name": "",
          "type": "address"
        }
      ],
      "stateMutability": "view",
      "type": "function"
    },
    {
      "inputs": [],
      "name": "renounceOwnership",
      "outputs": [],
      "stateMutability": "nonpayable",
      "type": "function"
    },
    {
      "inputs": [
        {
          "internalType": "uint256",
          "name": "marketId",
          "type": "uint256"
        },
        {
          "internalType": "enum FlareEnough.Status",
          "name": "newStatus",
          "type": "uint8"
        }
      ],
      "name": "setMarketStatus",
      "outputs": [],
      "stateMutability": "nonpayable",
      "type": "function"
    },
    {
      "inputs": [
        {
          "internalType": "address",
          "name": "newOwner",
          "type": "address"
        }
      ],
      "name": "transferOwnership",
      "outputs": [],
      "stateMutability": "nonpayable",
      "type": "function"
    },
    {
      "inputs": [],
      "name": "usdcToken",
      "outputs": [
        {
          "internalType": "contract IERC20",
          "name": "",
          "type": "address"
        }
      ],
      "stateMutability": "view",
      "type": "function"
    }
  ],
  "bytecode": "0x608060405234801561001057600080fd5b506040516144b83803806144b883398101604081905261002f916100d4565b338061005557604051631e4fbdf760e01b81526000600482015260240160405180910390fd5b61005e81610084565b50600380546001600160a01b0319166001600160a01b0392909216919091179055610104565b600080546001600160a01b038381166001600160a01b0319831681178455604051919092169283917f8be0079c531659141344cd1fd0a4f28419497f9722a3daafe3b4186f6b6457e09190a35050565b6000602082840312156100e657600080fd5b81516001600160a01b03811681146100fd57600080fd5b9392505050565b6143a5806101136000396000f3fe608060405234801561001057600080fd5b50600436106100b45760003560e01c80638da5cb5b116100715780638da5cb5b1461014d578063b1283e771461015e578063b701e10114610185578063bf143f1b14610198578063eb44fdd3146101ab578063f2fde38b146101cb57600080fd5b80630b791430146100b957806311eac855146100e357806327fa35c31461010e5780633efa2e651461011f5780633f4a5d0a14610132578063715018a614610145575b600080fd5b6100cc6100c73660046110aa565b6101de565b6040516100da929190611109565b60405180910390f35b6003546100f6906001600160a01b031681565b6040516001600160a01b0390911681526020016100da565b6002546040519081526020016100da565b61013061012d36600461112d565b50565b005b610130610140366004611211565b610285565b610130610411565b6000546001600160a01b03166100f6565b61017161016c3660046110aa565b610425565b6040516100da98979695949392919061130d565b610130610193366004611398565b6106af565b6101306101a63660046113cc565b610a2d565b6101be6101b93660046110aa565b610b08565b6040516100da9190611406565b6101306101d93660046114ea565b610e30565b6001602052600090815260409020805481906101f990611507565b80601f016020809104026020016040519081016040528092919081815260200182805461022590611507565b80156102725780601f1061024757610100808354040283529160200191610272565b820191906000526020600020905b81548152906001019060200180831161025557829003601f168201915b5050506001909301549192505060ff1682565b61028d610e6b565b60028054600181018083556000838152919290839081106102b0576102b0611541565b600091825260209091206008909102019050806102cd88826115a6565b50600181016102dc87826115a6565b50600281016102eb86826115a6565b50600381016102fa85826115a6565b506003546040516001600160a01b039091169061031690611036565b6001600160a01b039091168152602001604051809103906000f080158015610342573d6000803e3d6000fd5b506004820180546001600160a01b0319166001600160a01b0392831617905560035460405191169061037390611036565b6001600160a01b039091168152602001604051809103906000f08015801561039f573d6000803e3d6000fd5b506005820180546001600160a01b0319166001600160a01b03929092169190911790556006810183905560078101805460ff191690556040805183815290517f25b2eff8f9cbb97c6c73adf7d94f4f8956260becc65ab075709db7561914a2b19181900360200190a150505050505050565b610419610e6b565b6104236000610e98565b565b6002818154811061043557600080fd5b906000526020600020906008020160009150905080600001805461045890611507565b80601f016020809104026020016040519081016040528092919081815260200182805461048490611507565b80156104d15780601f106104a6576101008083540402835291602001916104d1565b820191906000526020600020905b8154815290600101906020018083116104b457829003601f168201915b5050505050908060010180546104e690611507565b80601f016020809104026020016040519081016040528092919081815260200182805461051290611507565b801561055f5780601f106105345761010080835404028352916020019161055f565b820191906000526020600020905b81548152906001019060200180831161054257829003601f168201915b50505050509080600201805461057490611507565b80601f01602080910402602001604051908101604052809291908181526020018280546105a090611507565b80156105ed5780601f106105c2576101008083540402835291602001916105ed565b820191906000526020600020905b8154815290600101906020018083116105d057829003601f168201915b50505050509080600301805461060290611507565b80601f016020809104026020016040519081016040528092919081815260200182805461062e90611507565b801561067b5780601f106106505761010080835404028352916020019161067b565b820191906000526020600020905b81548152906001019060200180831161065e57829003601f168201915b5050505060048301546005840154600685015460079095015493946001600160a01b03928316949290911692509060ff1688565b6106b7610e6b565b60025482106107055760405162461bcd60e51b815260206004820152601560248201527413585c9ad95d08191bd95cc81b9bdd08195e1a5cdd605a1b60448201526064015b60405180910390fd5b60006002838154811061071a5761071a611541565b600091825260209091206007600890920201015460ff166002811115610742576107426112d5565b146107a25760405162461bcd60e51b815260206004820152602a60248201527f4d61726b6574206d75737420626520696e2050656e64696e672073746174757360448201526920746f206368616e676560b01b60648201526084016106fc565b80600283815481106107b6576107b6611541565b60009182526020909120600760089092020101805460ff191660018360028111156107e3576107e36112d5565b021790555060018160028111156107fc576107fc6112d5565b036108fc576002828154811061081457610814611541565b600091825260208220600460089092020181015460408051633db5f76960e01b815290516001600160a01b0390921693633db5f7699382810193919282900301818387803b15801561086557600080fd5b505af1158015610879573d6000803e3d6000fd5b505050506002828154811061089057610890611541565b60009182526020822060056008909202010154604080516332eef3e560e21b815290516001600160a01b039092169263cbbbcf949260048084019382900301818387803b1580156108e057600080fd5b505af11580156108f4573d6000803e3d6000fd5b505050505050565b6002816002811115610910576109106112d5565b036109f4576002828154811061092857610928611541565b6000918252602082206004600890920201810154604080516332eef3e560e21b815290516001600160a01b039092169363cbbbcf949382810193919282900301818387803b15801561097957600080fd5b505af115801561098d573d6000803e3d6000fd5b50505050600282815481106109a4576109a4611541565b6000918252602082206005600890920201015460408051633db5f76960e01b815290516001600160a01b0390921692633db5f7699260048084019382900301818387803b1580156108e057600080fd5b60405162461bcd60e51b815260206004820152600e60248201526d496e76616c69642073746174757360901b60448201526064016106fc565b610a3681610ee8565b610a725760405162461bcd60e51b815260206004820152600d60248201526c24b73b30b634b210383937b7b360991b60448201526064016106fc565b6000610a816020830183611664565b610a8f9060a0810190611684565b610a99908061169a565b810190610aa691906116f5565b60408051808201825260208084015182528284015115158183015283516000908152600190915291909120815192935090918291908190610ae790826115a6565b50602091909101516001909101805460ff1916911515919091179055505050565b610b10611043565b6002548210610b595760405162461bcd60e51b815260206004820152601560248201527413585c9ad95d08191bd95cc81b9bdd08195e1a5cdd605a1b60448201526064016106fc565b60028281548110610b6c57610b6c611541565b906000526020600020906008020160405180610100016040529081600082018054610b9690611507565b80601f0160208091040260200160405190810160405280929190818152602001828054610bc290611507565b8015610c0f5780601f10610be457610100808354040283529160200191610c0f565b820191906000526020600020905b815481529060010190602001808311610bf257829003601f168201915b50505050508152602001600182018054610c2890611507565b80601f0160208091040260200160405190810160405280929190818152602001828054610c5490611507565b8015610ca15780601f10610c7657610100808354040283529160200191610ca1565b820191906000526020600020905b815481529060010190602001808311610c8457829003601f168201915b50505050508152602001600282018054610cba90611507565b80601f0160208091040260200160405190810160405280929190818152602001828054610ce690611507565b8015610d335780601f10610d0857610100808354040283529160200191610d33565b820191906000526020600020905b815481529060010190602001808311610d1657829003601f168201915b50505050508152602001600382018054610d4c90611507565b80601f0160208091040260200160405190810160405280929190818152602001828054610d7890611507565b8015610dc55780601f10610d9a57610100808354040283529160200191610dc5565b820191906000526020600020905b815481529060010190602001808311610da857829003601f168201915b505050918352505060048201546001600160a01b039081166020830152600583015416604082015260068201546060820152600782015460809091019060ff166002811115610e1657610e166112d5565b6002811115610e2757610e276112d5565b90525092915050565b610e38610e6b565b6001600160a01b038116610e6257604051631e4fbdf760e01b8152600060048201526024016106fc565b61012d81610e98565b6000546001600160a01b031633146104235760405163118cdaa760e01b81523360048201526024016106fc565b600080546001600160a01b038381166001600160a01b0319831681178455604051919092169283917f8be0079c531659141344cd1fd0a4f28419497f9722a3daafe3b4186f6b6457e09190a35050565b6000610ef2610f64565b6001600160a01b031663d2d3a41f836040518263ffffffff1660e01b8152600401610f1d9190611a19565b602060405180830381865afa158015610f3a573d6000803e3d6000fd5b505050506040513d601f19601f82011682018060405250810190610f5e9190611ab6565b92915050565b600073ad67fe66660fb8dfe9d6b1b4240d8650e30f60196001600160a01b031663159354a2604051602001610fbc906020808252600f908201526e233231ab32b934b334b1b0ba34b7b760891b604082015260600190565b604051602081830303815290604052805190602001206040518263ffffffff1660e01b8152600401610ff091815260200190565b602060405180830381865afa15801561100d573d6000803e3d6000fd5b505050506040513d601f19601f820116820180604052508101906110319190611ad3565b905090565b61287f80611af183390190565b6040518061010001604052806060815260200160608152602001606081526020016060815260200160006001600160a01b0316815260200160006001600160a01b0316815260200160008152602001600060028111156110a5576110a56112d5565b905290565b6000602082840312156110bc57600080fd5b5035919050565b6000815180845260005b818110156110e9576020818501810151868301820152016110cd565b506000602082860101526020601f19601f83011685010191505092915050565b60408152600061111c60408301856110c3565b905082151560208301529392505050565b60006020828403121561113f57600080fd5b81356001600160401b0381111561115557600080fd5b82016060818503121561116757600080fd5b9392505050565b634e487b7160e01b600052604160045260246000fd5b600082601f83011261119557600080fd5b81356001600160401b038111156111ae576111ae61116e565b604051601f8201601f19908116603f011681016001600160401b03811182821017156111dc576111dc61116e565b6040528181528382016020018510156111f457600080fd5b816020850160208301376000918101602001919091529392505050565b600080600080600060a0868803121561122957600080fd5b85356001600160401b0381111561123f57600080fd5b61124b88828901611184565b95505060208601356001600160401b0381111561126757600080fd5b61127388828901611184565b94505060408601356001600160401b0381111561128f57600080fd5b61129b88828901611184565b93505060608601356001600160401b038111156112b757600080fd5b6112c388828901611184565b95989497509295608001359392505050565b634e487b7160e01b600052602160045260246000fd5b6003811061130957634e487b7160e01b600052602160045260246000fd5b9052565b6101008152600061132261010083018b6110c3565b8281036020840152611334818b6110c3565b90508281036040840152611348818a6110c3565b9050828103606084015261135c81896110c3565b6001600160a01b038881166080860152871660a085015260c08401869052915061138b905060e08301846112eb565b9998505050505050505050565b600080604083850312156113ab57600080fd5b823591506020830135600381106113c157600080fd5b809150509250929050565b6000602082840312156113de57600080fd5b81356001600160401b038111156113f457600080fd5b82016040818503121561116757600080fd5b602081526000825161010060208401526114246101208401826110c3565b90506020840151601f1984830301604085015261144182826110c3565b9150506040840151601f1984830301606085015261145f82826110c3565b9150506060840151601f1984830301608085015261147d82826110c3565b915050608084015161149a60a08501826001600160a01b03169052565b5060a08401516001600160a01b03811660c08501525060c084015160e084015260e08401516114cd6101008501826112eb565b509392505050565b6001600160a01b038116811461012d57600080fd5b6000602082840312156114fc57600080fd5b8135611167816114d5565b600181811c9082168061151b57607f821691505b60208210810361153b57634e487b7160e01b600052602260045260246000fd5b50919050565b634e487b7160e01b600052603260045260246000fd5b601f8211156115a157806000526020600020601f840160051c8101602085101561157e5750805b601f840160051c820191505b8181101561159e576000815560010161158a565b50505b505050565b81516001600160401b038111156115bf576115bf61116e565b6115d3816115cd8454611507565b84611557565b6020601f82116001811461160757600083156115ef5750848201515b600019600385901b1c1916600184901b17845561159e565b600084815260208120601f198516915b828110156116375787850151825560209485019460019092019101611617565b50848210156116555786840151600019600387901b60f8161c191681555b50505050600190811b01905550565b6000823560be1983360301811261167a57600080fd5b9190910192915050565b60008235601e1983360301811261167a57600080fd5b6000808335601e198436030181126116b157600080fd5b8301803591506001600160401b038211156116cb57600080fd5b6020019150368190038213156116e057600080fd5b9250929050565b801515811461012d57600080fd5b60006020828403121561170757600080fd5b81356001600160401b0381111561171d57600080fd5b82016060818503121561172f57600080fd5b604051606081016001600160401b03811182821017156117515761175161116e565b6040528135815260208201356001600160401b0381111561177157600080fd5b61177d86828501611184565b60208301525060408201359150611793826116e7565b60408101919091529392505050565b6000823560be198336030181126117b857600080fd5b90910192915050565b80356001600160401b03811681146117d857600080fd5b919050565b6000808335601e198436030181126117f457600080fd5b83016020810192503590506001600160401b0381111561181357600080fd5b8036038213156116e057600080fd5b81835281816020850137506000828201602090810191909152601f909101601f19169091010190565b600061185782836117dd565b60e0855261186960e086018284611822565b91505061187960208401846117dd565b858303602087015261188c838284611822565b9250505061189d60408401846117dd565b85830360408701526118b0838284611822565b925050506118c160608401846117dd565b85830360608701526118d4838284611822565b925050506118e560808401846117dd565b85830360808701526118f8838284611822565b9250505061190960a08401846117dd565b85830360a087015261191c838284611822565b9250505061192d60c08401846117dd565b85830360c0870152611940838284611822565b9695505050505050565b60008235601e198336030181126117b857600080fd5b600061196c82836117dd565b6020855261197e602086018284611822565b95945050505050565b803582526020808201359083015260006001600160401b036119ab604084016117c1565b1660408401526001600160401b036119c5606084016117c1565b166060840152608082013560de198336030181126119e257600080fd5b60c060808501526119f860c0850184830161184b565b9050611a0760a084018461194a565b84820360a086015261197e8282611960565b6020815260008235601e19843603018112611a3357600080fd5b83016020810190356001600160401b03811115611a4f57600080fd5b8060051b803603831315611a6257600080fd5b60406020860152606085018290526001600160fb1b03821115611a8457600080fd5b8083608087013784019150611a9e905060208501856117a2565b606084830301604085015261197e6080830182611987565b600060208284031215611ac857600080fd5b8151611167816116e7565b600060208284031215611ae557600080fd5b8151611167816114d556fe608060405234801561001057600080fd5b5060405161287f38038061287f83398101604081905261002f9161012f565b6001805561005d7fa49807205ce4d355092ef5a8a18f56e8913cf4a201fbe287825b095693c2177533610083565b50600280546001600160a01b0319166001600160a01b039290921691909117905561015f565b6000828152602081815260408083206001600160a01b038516845290915281205460ff16610125576000838152602081815260408083206001600160a01b03861684529091529020805460ff191660011790556100dd3390565b6001600160a01b0316826001600160a01b0316847f2f8788117e7eff1d82e926ec794901d17c78024a50270940304540a733656f0d60405160405180910390a4506001610129565b5060005b92915050565b60006020828403121561014157600080fd5b81516001600160a01b038116811461015857600080fd5b9392505050565b6127118061016e6000396000f3fe608060405234801561001057600080fd5b506004361061021c5760003560e01c806382f451f411610125578063cb1b0917116100ad578063dd20256a1161007c578063dd20256a14610522578063f6f3dbd51461052a578063fba225b91461053d578063fc7e286d14610550578063fd7192fc1461057057600080fd5b8063cb1b0917146104ec578063cbbbcf94146104ff578063d547741f14610507578063d65ca97c1461051a57600080fd5b8063a20b6e34116100f4578063a20b6e341461041d578063a20c6a4e14610464578063a217fddf146104b1578063a4f90223146104b9578063a88e76f4146104d957600080fd5b806382f451f4146103e557806387110cab146103f857806389a302711461040057806391d148541461040a57600080fd5b806336cccdad116101a85780634c6dc0bc116101775780634c6dc0bc1461036a57806367eabba11461039a57806375b238fc146103a35780637ed83faf146103ca5780638151760f146103dd57600080fd5b806336cccdad1461031e5780633ccfd60b146103315780633db5f769146103395780633ee81ba01461034157600080fd5b80632357928e116101ef5780632357928e146102a0578063248a9ca3146102b55780632f2ff15d146102d857806336568abe146102eb57806336679e6d146102fe57600080fd5b806301ffc9a714610221578063032a56711461024957806311eac8551461025b578063200d2ed214610286575b600080fd5b61023461022f366004612272565b610583565b60405190151581526020015b60405180910390f35b6006545b604051908152602001610240565b60025461026e906001600160a01b031681565b6040516001600160a01b039091168152602001610240565b6008546102939060ff1681565b60405161024091906122b9565b6102b36102ae3660046122e1565b6105ba565b005b61024d6102c33660046122e1565b60009081526020819052604090206001015490565b6102b36102e636600461230f565b6106f5565b6102b36102f936600461230f565b610720565b61024d61030c36600461233f565b60046020526000908152604090205481565b6102b361032c36600461235c565b610758565b6102b361097c565b6102b3610c4a565b6102b361034f36600461238d565b600991909155600a805460ff191660ff909216919091179055565b610372610ce3565b6040805193845260009290920b602084015267ffffffffffffffff1690820152606001610240565b61024d60095481565b61024d7fa49807205ce4d355092ef5a8a18f56e8913cf4a201fbe287825b095693c2177581565b6102b36103d836600461235c565b610d96565b60055461024d565b6102b36103f33660046123b2565b610fb1565b60075461024d565b61024d620f424081565b61023461041836600461230f565b61133e565b61043061042b3660046122e1565b611367565b604080516001600160a01b03909616865293151560208601529284019190915260608301521515608082015260a001610240565b6104776104723660046122e1565b6113b8565b604080516001600160a01b0397881681529690951660208701529385019290925260608401526080830152151560a082015260c001610240565b61024d600081565b600a546104c69060000b81565b60405160009190910b8152602001610240565b6102b36104e73660046122e1565b61140e565b6104776104fa3660046122e1565b6116be565b6102b36116ce565b6102b361051536600461230f565b61178b565b61024d6117b0565b61024d6117d1565b6102b36105383660046123b2565b6117e6565b6102b361054b3660046122e1565b611b70565b61024d61055e36600461233f565b60036020526000908152604090205481565b6102b361057e3660046122e1565b611dde565b60006001600160e01b03198216637965db0b60e01b14806105b457506301ffc9a760e01b6001600160e01b03198316145b92915050565b600060085460ff1660028111156105d3576105d36122a3565b146105f95760405162461bcd60e51b81526004016105f0906123ed565b60405180910390fd5b6002546040516323b872dd60e01b8152336004820152306024820152604481018390526001600160a01b03909116906323b872dd906064016020604051808303816000875af1158015610650573d6000803e3d6000fd5b505050506040513d601f19601f820116820180604052508101906106749190612424565b50336000908152600360205260408120805483929061069490849061245c565b909155505033600090815260046020526040812080548392906106b890849061245c565b909155505060405181815233907f2da466a7b24304f47e87fa2e1e5a81b9831ce54fec19055ce277ca2f39ba42c49060200160405180910390a250565b60008281526020819052604090206001015461071081611f71565b61071a8383611f7e565b50505050565b6001600160a01b03811633146107495760405163334bd91960e11b815260040160405180910390fd5b6107538282612010565b505050565b600160085460ff166002811115610771576107716122a3565b0361078e5760405162461bcd60e51b81526004016105f09061246f565b60065482106107af5760405162461bcd60e51b81526004016105f090612497565b6000600683815481106107c4576107c46124c2565b6000918252602090912060069091020180549091506001600160a01b031633146108005760405162461bcd60e51b81526004016105f0906124d8565b600581015460ff16156108255760405162461bcd60e51b81526004016105f090612501565b600780546040805160a08101825233808252600060208084018281528486018b8152606086018b8152600160808801818152908a018b559985529551600489027fa66cc928b5edb82af9bd49922954155ab7b0942694bea4ce44661d9a8736c6888101805494511515600160a01b026001600160a81b03199095166001600160a01b0390931692909217939093179055517fa66cc928b5edb82af9bd49922954155ab7b0942694bea4ce44661d9a8736c68982015593517fa66cc928b5edb82af9bd49922954155ab7b0942694bea4ce44661d9a8736c68a85015595517fa66cc928b5edb82af9bd49922954155ab7b0942694bea4ce44661d9a8736c68b909301805493151560ff19909416939093179092558251918252938101869052919291869184917ff4b3231bef2c91eceedff9d3bc0e7223f87c4b6518e8b572e3d707e0ddd709ac91015b60405180910390a450505050565b61098461207b565b600060085460ff16600281111561099d5761099d6122a3565b036109f65760405162461bcd60e51b8152602060048201526024808201527f43616e6e6f7420776974686472617720647572696e672070656e64696e6720736044820152637461746560e01b60648201526084016105f0565b600160085460ff166002811115610a0f57610a0f6122a3565b03610b2b573360009081526003602052604090205480610a675760405162461bcd60e51b81526020600482015260136024820152724e6f7468696e6720746f20776974686472617760681b60448201526064016105f0565b3360008181526003602052604080822091909155600254905163a9059cbb60e01b81526004810192909252602482018390526001600160a01b03169063a9059cbb906044016020604051808303816000875af1158015610acb573d6000803e3d6000fd5b505050506040513d601f19601f82011682018060405250810190610aef9190612424565b5060405181815233907f7084f5476618d8e60b11ef0d7d3f06914655adb8793e28ff7f018d4c76d505d59060200160405180910390a250610c3f565b3360009081526004602052604090205480610b7e5760405162461bcd60e51b81526020600482015260136024820152724e6f7468696e6720746f20776974686472617760681b60448201526064016105f0565b33600081815260046020819052604080832092909255600254915163a9059cbb60e01b815290810192909252602482018390526001600160a01b03169063a9059cbb906044016020604051808303816000875af1158015610be3573d6000803e3d6000fd5b505050506040513d601f19601f82011682018060405250810190610c079190612424565b5060405181815233907f7084f5476618d8e60b11ef0d7d3f06914655adb8793e28ff7f018d4c76d505d59060200160405180910390a2505b610c4860018055565b565b600060085460ff166002811115610c6357610c636122a3565b14610c805760405162461bcd60e51b81526004016105f0906123ed565b7fa49807205ce4d355092ef5a8a18f56e8913cf4a201fbe287825b095693c21775610caa81611f71565b6008805460ff191660021790556040517fc8c9a0553d39adb3c6a05a221391c8bed0303510816a373eef652849f7bfd72990600090a150565b6000806000806009541115610d08575050600954600a54909260009190910b91504290565b6000610d126120a5565b6040516349f4fc0360e11b8152665614940bd554d160c21b600482018190529192506001600160a01b038316906393e9f80690602401606060405180830381865afa158015610d65573d6000803e3d6000fd5b505050506040513d601f19601f82011682018060405250810190610d89919061252c565b9450945094505050909192565b600160085460ff166002811115610daf57610daf6122a3565b03610dcc5760405162461bcd60e51b81526004016105f09061246f565b6005548210610ded5760405162461bcd60e51b81526004016105f090612497565b600060058381548110610e0257610e026124c2565b6000918252602090912060069091020180549091506001600160a01b03163314610e3e5760405162461bcd60e51b81526004016105f0906124d8565b600581015460ff1615610e635760405162461bcd60e51b81526004016105f090612501565b600780546040805160a08101825233808252600160208084018281528486018b8152606086018b815260808701858152858a018b5560009a909a529551600489027fa66cc928b5edb82af9bd49922954155ab7b0942694bea4ce44661d9a8736c6888101805494511515600160a01b026001600160a81b03199095166001600160a01b0390931692909217939093179055517fa66cc928b5edb82af9bd49922954155ab7b0942694bea4ce44661d9a8736c68982015593517fa66cc928b5edb82af9bd49922954155ab7b0942694bea4ce44661d9a8736c68a85015595517fa66cc928b5edb82af9bd49922954155ab7b0942694bea4ce44661d9a8736c68b909301805493151560ff19909416939093179092558251918252938101869052919291869184917ff4b3231bef2c91eceedff9d3bc0e7223f87c4b6518e8b572e3d707e0ddd709ac910161096e565b600160085460ff166002811115610fca57610fca6122a3565b03610fe75760405162461bcd60e51b81526004016105f09061246f565b6000610ff16117b0565b610ff96117d1565b611003908561257c565b61100d9190612593565b3360009081526004602052604090205490915081111561106f5760405162461bcd60e51b815260206004820152601e60248201527f496e73756666696369656e742062616c616e636520666f72206275796572000060448201526064016105f0565b6001600160a01b0385166000908152600460205260409020548111156110d15760405162461bcd60e51b815260206004820152601760248201527614d95b1b195c881b1858dadcc818dbdb1b185d195c985b604a1b60448201526064016105f0565b6001600160a01b0385166111185760405162461bcd60e51b815260206004820152600e60248201526d24b73b30b634b21039b2b63632b960911b60448201526064016105f0565b4282116111585760405162461bcd60e51b815260206004820152600e60248201526d496e76616c69642065787069727960901b60448201526064016105f0565b33600090815260046020526040812080548392906111779084906125b5565b90915550506001600160a01b038516600090815260046020526040812080548392906111a49084906125b5565b9091555050600680546040805160c081018252338082526001600160a01b038a8116602084018181528486018c8152606086018c8152608087018c8152600060a0890181815260018c018d558c825298519b8b027ff652222313e28459528d920b65115c16c04f3efc82aaedc97be59f3f377c0d3f810180549d89166001600160a01b03199e8f1617905594517ff652222313e28459528d920b65115c16c04f3efc82aaedc97be59f3f377c0d4086018054919098169c169b909b1790955590517ff652222313e28459528d920b65115c16c04f3efc82aaedc97be59f3f377c0d41830155517ff652222313e28459528d920b65115c16c04f3efc82aaedc97be59f3f377c0d4282015591517ff652222313e28459528d920b65115c16c04f3efc82aaedc97be59f3f377c0d4383015592517ff652222313e28459528d920b65115c16c04f3efc82aaedc97be59f3f377c0d44909101805491151560ff1990921691909117905591519293909284917f276c5c382d854db896b2c3a61657178d5ca2278f683551822bb5c0f7bceeaa8491a4505050505050565b6000918252602082815260408084206001600160a01b0393909316845291905290205460ff1690565b6007818154811061137757600080fd5b600091825260209091206004909102018054600182015460028301546003909301546001600160a01b038316945060ff600160a01b90930483169391921685565b600681815481106113c857600080fd5b60009182526020909120600690910201805460018201546002830154600384015460048501546005909501546001600160a01b0394851696509390921693909260ff1686565b600160085460ff166002811115611427576114276122a3565b036114445760405162461bcd60e51b81526004016105f09061246f565b60055481106114655760405162461bcd60e51b81526004016105f090612497565b60006005828154811061147a5761147a6124c2565b6000918252602090912060069091020180549091506001600160a01b031633146114b65760405162461bcd60e51b81526004016105f0906124d8565b600581015460ff16156114db5760405162461bcd60e51b81526004016105f090612501565b80600401544211156115205760405162461bcd60e51b815260206004820152600e60248201526d13dc1d1a5bdb88195e1c1a5c995960921b60448201526064016105f0565b60008061152b610ce3565b509150915060008160000b12156115775760405162461bcd60e51b815260206004820152601060248201526f496e76616c696420646563696d616c7360801b60448201526064016105f0565b6002830154828181111561167a57600061159284600a6126af565b60038701546115a185856125b5565b6115ab919061257c565b6115b59190612593565b60018701546001600160a01b03166000908152600460205260409020549091508111156116195760405162461bcd60e51b815260206004820152601260248201527153656c6c6572206c61636b732066756e647360701b60448201526064016105f0565b60018601546001600160a01b0316600090815260046020526040812080548392906116459084906125b5565b909155505085546001600160a01b03166000908152600460205260408120805483929061167390849061245c565b9091555050505b60058501805460ff19166001179055604051339087907f74ebbab24ee8774729982ac100f931306b160f431f7f1483cc380186d56754bc90600090a3505050505050565b600581815481106113c857600080fd5b600060085460ff1660028111156116e7576116e76122a3565b146117045760405162461bcd60e51b81526004016105f0906123ed565b7fa49807205ce4d355092ef5a8a18f56e8913cf4a201fbe287825b095693c2177561172e81611f71565b6008805460ff19166001179055611747600560006121a6565b611753600660006121a6565b61175f600760006121c7565b6040517fe1cdf1bd1b09ec8720f86614b0df95a0e2d1e0fc5c126f294604b904f29548bc90600090a150565b6000828152602081905260409020600101546117a681611f71565b61071a8383612010565b6000806117bb610ce3565b5091506117cb905081600a6126af565b91505090565b60006117e1620f4240600161257c565b905090565b600060085460ff1660028111156117ff576117ff6122a3565b1461181c5760405162461bcd60e51b81526004016105f0906123ed565b60006118266117b0565b61182e6117d1565b611838908561257c565b6118429190612593565b336000908152600460205260409020549091508111156118a45760405162461bcd60e51b815260206004820152601e60248201527f496e73756666696369656e742062616c616e636520666f72206275796572000060448201526064016105f0565b6001600160a01b0385166000908152600460205260409020548111156119065760405162461bcd60e51b815260206004820152601760248201527614d95b1b195c881b1858dadcc818dbdb1b185d195c985b604a1b60448201526064016105f0565b6001600160a01b03851661194d5760405162461bcd60e51b815260206004820152600e60248201526d24b73b30b634b21039b2b63632b960911b60448201526064016105f0565b42821161198d5760405162461bcd60e51b815260206004820152600e60248201526d496e76616c69642065787069727960901b60448201526064016105f0565b33600090815260046020526040812080548392906119ac9084906125b5565b90915550506001600160a01b038516600090815260046020526040812080548392906119d99084906125b5565b9091555050600580546040805160c081018252338082526001600160a01b038a8116602084018181528486018c8152606086018c8152608087018c8152600060a0890181815260018c018d559b8152975160068b027f036b6384b5eca791c62761152d0c79bb0604c104a5fb6f4eb0703f3154bb3db0810180549289166001600160a01b031993841617905594517f036b6384b5eca791c62761152d0c79bb0604c104a5fb6f4eb0703f3154bb3db1860180549190981691161790955590517f036b6384b5eca791c62761152d0c79bb0604c104a5fb6f4eb0703f3154bb3db2830155517f036b6384b5eca791c62761152d0c79bb0604c104a5fb6f4eb0703f3154bb3db382015591517f036b6384b5eca791c62761152d0c79bb0604c104a5fb6f4eb0703f3154bb3db483015595517f036b6384b5eca791c62761152d0c79bb0604c104a5fb6f4eb0703f3154bb3db5909101805491151560ff19909216919091179055915192939284917fadd7a9f0ecc251098cacc1d016be5cb2a6d025381843cd5e5e03ff2e0274396b91a4505050505050565b600160085460ff166002811115611b8957611b896122a3565b03611ba65760405162461bcd60e51b81526004016105f09061246f565b6007548110611bea5760405162461bcd60e51b815260206004820152601060248201526f125b9d985b1a59081bdc99195c88125160821b60448201526064016105f0565b600060078281548110611bff57611bff6124c2565b60009182526020909120600490910201600381015490915060ff16611c575760405162461bcd60e51b815260206004820152600e60248201526d24b730b1ba34bb329037b93232b960911b60448201526064016105f0565b6002810154336000908152600460205260409020541015611cba5760405162461bcd60e51b815260206004820152601c60248201527f496e73756666696369656e74207669727475616c2062616c616e63650000000060448201526064016105f0565b60028101543360009081526004602052604081208054909190611cde9084906125b5565b9091555050600281015481546001600160a01b031660009081526004602052604081208054909190611d1190849061245c565b90915550508054600160a01b900460ff1615611d665760006005826001015481548110611d4057611d406124c2565b6000918252602090912060069091020180546001600160a01b0319163317905550611da1565b60006006826001015481548110611d7f57611d7f6124c2565b6000918252602090912060069091020180546001600160a01b03191633179055505b60038101805460ff19169055604051339083907f74ebbab24ee8774729982ac100f931306b160f431f7f1483cc380186d56754bc90600090a35050565b600160085460ff166002811115611df757611df76122a3565b03611e145760405162461bcd60e51b81526004016105f09061246f565b6006548110611e355760405162461bcd60e51b81526004016105f090612497565b600060068281548110611e4a57611e4a6124c2565b6000918252602090912060069091020180549091506001600160a01b03163314611e865760405162461bcd60e51b81526004016105f0906124d8565b600581015460ff1615611eab5760405162461bcd60e51b81526004016105f090612501565b8060040154421115611ef05760405162461bcd60e51b815260206004820152600e60248201526d13dc1d1a5bdb88195e1c1a5c995960921b60448201526064016105f0565b600080611efb610ce3565b509150915060008160000b1215611f475760405162461bcd60e51b815260206004820152601060248201526f496e76616c696420646563696d616c7360801b60448201526064016105f0565b6002830154828082111561167a576000611f6284600a6126af565b60038701546115a184866125b5565b611f7b8133612169565b50565b6000611f8a838361133e565b612008576000838152602081815260408083206001600160a01b03861684529091529020805460ff19166001179055611fc03390565b6001600160a01b0316826001600160a01b0316847f2f8788117e7eff1d82e926ec794901d17c78024a50270940304540a733656f0d60405160405180910390a45060016105b4565b5060006105b4565b600061201c838361133e565b15612008576000838152602081815260408083206001600160a01b0386168085529252808320805460ff1916905551339286917ff6391f5c32d9c69d2a47ea670b442974b53935d1edc7fd64eb21e047a839171b9190a45060016105b4565b60026001540361209e57604051633ee5aeb560e01b815260040160405180910390fd5b6002600155565b600073ad67fe66660fb8dfe9d6b1b4240d8650e30f60196001600160a01b031663159354a26040516020016120f490602080825260069082015265233a39b7ab1960d11b604082015260600190565b604051602081830303815290604052805190602001206040518263ffffffff1660e01b815260040161212891815260200190565b602060405180830381865afa158015612145573d6000803e3d6000fd5b505050506040513d601f19601f820116820180604052508101906117e191906126be565b612173828261133e565b6121a25760405163e2517d3f60e01b81526001600160a01b0382166004820152602481018390526044016105f0565b5050565b5080546000825560060290600052602060002090810190611f7b91906121e8565b5080546000825560040290600052602060002090810190611f7b9190612239565b5b808211156122355780546001600160a01b03199081168255600182018054909116905560006002820181905560038201819055600482015560058101805460ff191690556006016121e9565b5090565b5b808211156122355780546001600160a81b0319168155600060018201819055600282015560038101805460ff1916905560040161223a565b60006020828403121561228457600080fd5b81356001600160e01b03198116811461229c57600080fd5b9392505050565b634e487b7160e01b600052602160045260246000fd5b60208101600383106122db57634e487b7160e01b600052602160045260246000fd5b91905290565b6000602082840312156122f357600080fd5b5035919050565b6001600160a01b0381168114611f7b57600080fd5b6000806040838503121561232257600080fd5b823591506020830135612334816122fa565b809150509250929050565b60006020828403121561235157600080fd5b813561229c816122fa565b6000806040838503121561236f57600080fd5b50508035926020909101359150565b8060000b8114611f7b57600080fd5b600080604083850312156123a057600080fd5b8235915060208301356123348161237e565b600080600080608085870312156123c857600080fd5b84356123d3816122fa565b966020860135965060408601359560600135945092505050565b6020808252601b908201527f53797374656d206e6f7420696e2070656e64696e672073746174650000000000604082015260600190565b60006020828403121561243657600080fd5b8151801515811461229c57600080fd5b634e487b7160e01b600052601160045260246000fd5b808201808211156105b4576105b4612446565b6020808252600e908201526d14de5cdd195b4818589bdc9d195960921b604082015260600190565b602080825260119082015270125b9d985b1a59081bdc1d1a5bdb881251607a1b604082015260600190565b634e487b7160e01b600052603260045260246000fd5b6020808252600f908201526e2737ba103cb7bab91037b83a34b7b760891b604082015260600190565b602080825260119082015270105b1c9958591e48195e195c98da5cd959607a1b604082015260600190565b60008060006060848603121561254157600080fd5b8351925060208401516125538161237e565b604085015190925067ffffffffffffffff8116811461257157600080fd5b809150509250925092565b80820281158282048414176105b4576105b4612446565b6000826125b057634e487b7160e01b600052601260045260246000fd5b500490565b818103818111156105b4576105b4612446565b6001815b6001841115612603578085048111156125e7576125e7612446565b60018416156125f557908102905b60019390931c9280026125cc565b935093915050565b60008261261a575060016105b4565b81612627575060006105b4565b816001811461263d576002811461264757612663565b60019150506105b4565b60ff84111561265857612658612446565b50506001821b6105b4565b5060208310610133831016604e8410600b8410161715612686575081810a6105b4565b61269360001984846125c8565b80600019048211156126a7576126a7612446565b029392505050565b600061229c60ff84168361260b565b6000602082840312156126d057600080fd5b815161229c816122fa56fea2646970667358221220332167e74c2650a66149a7e957aa0f67cf031dc1119a4ef5e96db1c486d090b764736f6c634300081a0033a2646970667358221220983f23072dfe82f236946aaa4d18993343f9c1d1e226821803f31ddc0c322f5364736f6c634300081a0033",
  "linkReferences": {},
  "deployedLinkReferences": {}
}